{
  "_format": "hh-sol-artifact-1",
  "contractName": "FileIntegrity",
  "sourceName": "contracts/FileIntegrity.sol",
  "abi": [
    {
      "anonymous": false,
      "inputs": [
        {
          "indexed": false,
          "internalType": "string",
          "name": "fileUrl",
          "type": "string"
        },
        {
          "indexed": false,
          "internalType": "string",
          "name": "hash",
          "type": "string"
        }
      ],
      "name": "FileHashStored",
      "type": "event"
    },
    {
      "anonymous": false,
      "inputs": [
        {
          "indexed": false,
          "internalType": "string",
          "name": "fileUrl",
          "type": "string"
        },
        {
          "indexed": false,
          "internalType": "bool",
          "name": "integrity",
          "type": "bool"
        }
      ],
      "name": "FileHashVerified",
      "type": "event"
    },
    {
      "inputs": [
        {
          "internalType": "string",
          "name": "fileUrl",
          "type": "string"
        }
      ],
      "name": "getFileHash",
      "outputs": [
        {
          "internalType": "string",
          "name": "",
          "type": "string"
        }
      ],
      "stateMutability": "view",
      "type": "function"
    },
    {
      "inputs": [
        {
          "internalType": "string",
          "name": "fileUrl",
          "type": "string"
        },
        {
          "internalType": "string",
          "name": "fileHash",
          "type": "string"
        }
      ],
      "name": "storeFileHash",
      "outputs": [],
      "stateMutability": "nonpayable",
      "type": "function"
    },
    {
      "inputs": [
        {
          "internalType": "string",
          "name": "fileUrl",
          "type": "string"
        },
        {
          "internalType": "string",
          "name": "fileHash",
          "type": "string"
        }
      ],
      "name": "verifyFileHash",
      "outputs": [
        {
          "internalType": "bool",
          "name": "",
          "type": "bool"
        }
      ],
      "stateMutability": "view",
      "type": "function"
    }
  ],
  "bytecode": "0x6080604052348015600f57600080fd5b50610a838061001f6000396000f3fe608060405234801561001057600080fd5b50600436106100415760003560e01c80631f4e6e9e146100465780634498abf114610076578063f880680b14610092575b600080fd5b610060600480360381019061005b9190610417565b6100c2565b60405161006d91906104aa565b60405180910390f35b610090600480360381019061008b9190610417565b610138565b005b6100ac60048036038101906100a791906104c5565b61020d565b6040516100b9919061058d565b60405180910390f35b6000816040516020016100d591906105eb565b604051602081830303815290604052805190602001206000846040516100fb91906105eb565b908152602001604051809103902060405160200161011991906106fa565b6040516020818303038152906040528051906020012014905092915050565b6000808360405161014991906105eb565b9081526020016040518091039020805461016290610631565b9050146101a4576040517f08c379a000000000000000000000000000000000000000000000000000000000815260040161019b90610783565b60405180910390fd5b806000836040516101b591906105eb565b908152602001604051809103902090816101cf9190610944565b507f73f6035fe120f579a9028e34a96616f0fc4b284d6ba0441e1a2eeb0c0c22e3028282604051610201929190610a16565b60405180910390a15050565b606060008260405161021f91906105eb565b9081526020016040518091039020805461023890610631565b80601f016020809104026020016040519081016040528092919081815260200182805461026490610631565b80156102b15780601f10610286576101008083540402835291602001916102b1565b820191906000526020600020905b81548152906001019060200180831161029457829003601f168201915b50505050509050919050565b6000604051905090565b600080fd5b600080fd5b600080fd5b600080fd5b6000601f19601f8301169050919050565b7f4e487b7100000000000000000000000000000000000000000000000000000000600052604160045260246000fd5b610324826102db565b810181811067ffffffffffffffff82111715610343576103426102ec565b5b80604052505050565b60006103566102bd565b9050610362828261031b565b919050565b600067ffffffffffffffff821115610382576103816102ec565b5b61038b826102db565b9050602081019050919050565b82818337600083830152505050565b60006103ba6103b584610367565b61034c565b9050828152602081018484840111156103d6576103d56102d6565b5b6103e1848285610398565b509392505050565b600082601f8301126103fe576103fd6102d1565b5b813561040e8482602086016103a7565b91505092915050565b6000806040838503121561042e5761042d6102c7565b5b600083013567ffffffffffffffff81111561044c5761044b6102cc565b5b610458858286016103e9565b925050602083013567ffffffffffffffff811115610479576104786102cc565b5b610485858286016103e9565b9150509250929050565b60008115159050919050565b6104a48161048f565b82525050565b60006020820190506104bf600083018461049b565b92915050565b6000602082840312156104db576104da6102c7565b5b600082013567ffffffffffffffff8111156104f9576104f86102cc565b5b610505848285016103e9565b91505092915050565b600081519050919050565b600082825260208201905092915050565b60005b8381101561054857808201518184015260208101905061052d565b60008484015250505050565b600061055f8261050e565b6105698185610519565b935061057981856020860161052a565b610582816102db565b840191505092915050565b600060208201905081810360008301526105a78184610554565b905092915050565b600081905092915050565b60006105c58261050e565b6105cf81856105af565b93506105df81856020860161052a565b80840191505092915050565b60006105f782846105ba565b915081905092915050565b7f4e487b7100000000000000000000000000000000000000000000000000000000600052602260045260246000fd5b6000600282049050600182168061064957607f821691505b60208210810361065c5761065b610602565b5b50919050565b60008190508160005260206000209050919050565b6000815461068481610631565b61068e81866105af565b945060018216600081146106a957600181146106be576106f1565b60ff19831686528115158202860193506106f1565b6106c785610662565b60005b838110156106e9578154818901526001820191506020810190506106ca565b838801955050505b50505092915050565b60006107068284610677565b915081905092915050565b7f4861736820616c72656164792065786973747320666f7220746869732066696c60008201527f652e000000000000000000000000000000000000000000000000000000000000602082015250565b600061076d602283610519565b915061077882610711565b604082019050919050565b6000602082019050818103600083015261079c81610760565b9050919050565b60006020601f8301049050919050565b600082821b905092915050565b6000600883026107f07fffffffffffffffffffffffffffffffffffffffffffffffffffffffffffffffff826107b3565b6107fa86836107b3565b95508019841693508086168417925050509392505050565b6000819050919050565b6000819050919050565b600061084161083c61083784610812565b61081c565b610812565b9050919050565b6000819050919050565b61085b83610826565b61086f61086782610848565b8484546107c0565b825550505050565b600090565b610884610877565b61088f818484610852565b505050565b5b818110156108b3576108a860008261087c565b600181019050610895565b5050565b601f8211156108f8576108c981610662565b6108d2846107a3565b810160208510156108e1578190505b6108f56108ed856107a3565b830182610894565b50505b505050565b600082821c905092915050565b600061091b600019846008026108fd565b1980831691505092915050565b6000610934838361090a565b9150826002028217905092915050565b61094d8261050e565b67ffffffffffffffff811115610966576109656102ec565b5b6109708254610631565b61097b8282856108b7565b600060209050601f8311600181146109ae576000841561099c578287015190505b6109a68582610928565b865550610a0e565b601f1984166109bc86610662565b60005b828110156109e4578489015182556001820191506020850194506020810190506109bf565b86831015610a0157848901516109fd601f89168261090a565b8355505b6001600288020188555050505b505050505050565b60006040820190508181036000830152610a308185610554565b90508181036020830152610a448184610554565b9050939250505056fea264697066735822122037cdb7669a722836120f8bf63a2c5c26799636e2c8eb4828f8b53500b2d9b2c064736f6c634300081c0033",
  "linkReferences": {},
  "deployedLinkReferences": {}
}