{
  "_format": "hh-sol-artifact-1",
  "contractName": "Marketplace",
  "sourceName": "contracts/Marketplace.sol",
  "abi": [
    {
      "anonymous": false,
      "inputs": [
        {
          "indexed": false,
          "internalType": "string",
          "name": "fileUrl",
          "type": "string"
        },
        {
          "indexed": false,
          "internalType": "address",
          "name": "buyer",
          "type": "address"
        }
      ],
      "name": "FilePurchased",
      "type": "event"
    },
    {
      "anonymous": false,
      "inputs": [
        {
          "indexed": false,
          "internalType": "string",
          "name": "fileUrl",
          "type": "string"
        },
        {
          "indexed": false,
          "internalType": "uint256",
          "name": "price",
          "type": "uint256"
        },
        {
          "indexed": false,
          "internalType": "address",
          "name": "owner",
          "type": "address"
        }
      ],
      "name": "FileUploaded",
      "type": "event"
    },
    {
      "inputs": [
        {
          "internalType": "string",
          "name": "",
          "type": "string"
        }
      ],
      "name": "files",
      "outputs": [
        {
          "internalType": "string",
          "name": "fileHash",
          "type": "string"
        },
        {
          "internalType": "uint256",
          "name": "price",
          "type": "uint256"
        },
        {
          "internalType": "address",
          "name": "owner",
          "type": "address"
        }
      ],
      "stateMutability": "view",
      "type": "function"
    },
    {
      "inputs": [
        {
          "internalType": "string",
          "name": "fileUrl",
          "type": "string"
        }
      ],
      "name": "getFilePrice",
      "outputs": [
        {
          "internalType": "uint256",
          "name": "",
          "type": "uint256"
        }
      ],
      "stateMutability": "view",
      "type": "function"
    },
    {
      "inputs": [
        {
          "internalType": "string",
          "name": "fileUrl",
          "type": "string"
        }
      ],
      "name": "purchaseFile",
      "outputs": [],
      "stateMutability": "payable",
      "type": "function"
    },
    {
      "inputs": [
        {
          "internalType": "string",
          "name": "fileUrl",
          "type": "string"
        },
        {
          "internalType": "string",
          "name": "fileHash",
          "type": "string"
        },
        {
          "internalType": "uint256",
          "name": "price",
          "type": "uint256"
        }
      ],
      "name": "storeFileHashWithPrice",
      "outputs": [],
      "stateMutability": "nonpayable",
      "type": "function"
    },
    {
      "inputs": [
        {
          "internalType": "string",
          "name": "fileUrl",
          "type": "string"
        },
        {
          "internalType": "string",
          "name": "fileHash",
          "type": "string"
        }
      ],
      "name": "verifyFileHash",
      "outputs": [
        {
          "internalType": "bool",
          "name": "",
          "type": "bool"
        }
      ],
      "stateMutability": "view",
      "type": "function"
    }
  ],
  "bytecode": "0x6080604052348015600f57600080fd5b506110908061001f6000396000f3fe60806040526004361061004a5760003560e01c80631158d3201461004f5780631f4e6e9e1461006b5780637609b8e4146100a8578063c2e6fc85146100e5578063e77557611461010e575b600080fd5b6100696004803603810190610064919061083b565b61014d565b005b34801561007757600080fd5b50610092600480360381019061008d9190610884565b6103ad565b60405161009f9190610917565b60405180910390f35b3480156100b457600080fd5b506100cf60048036038101906100ca919061083b565b610426565b6040516100dc919061094b565b60405180910390f35b3480156100f157600080fd5b5061010c60048036038101906101079190610992565b610450565b005b34801561011a57600080fd5b506101356004803603810190610130919061083b565b6105f9565b60405161014493929190610add565b60405180910390f35b6000808260405161015e9190610b57565b908152602001604051809103902060405180606001604052908160008201805461018790610b9d565b80601f01602080910402602001604051908101604052809291908181526020018280546101b390610b9d565b80156102005780601f106101d557610100808354040283529160200191610200565b820191906000526020600020905b8154815290600101906020018083116101e357829003601f168201915b50505050508152602001600182015481526020016002820160009054906101000a900473ffffffffffffffffffffffffffffffffffffffff1673ffffffffffffffffffffffffffffffffffffffff1673ffffffffffffffffffffffffffffffffffffffff16815250509050600073ffffffffffffffffffffffffffffffffffffffff16816040015173ffffffffffffffffffffffffffffffffffffffff16036102de576040517f08c379a00000000000000000000000000000000000000000000000000000000081526004016102d590610c1a565b60405180910390fd5b8060200151341015610325576040517f08c379a000000000000000000000000000000000000000000000000000000000815260040161031c90610c86565b60405180910390fd5b806040015173ffffffffffffffffffffffffffffffffffffffff166108fc349081150290604051600060405180830381858888f1935050505015801561036f573d6000803e3d6000fd5b507f938a5fd371d226ebf5b2377b63e366e5a736e0e315a7fdf2c4da41c3464281be82336040516103a1929190610ca6565b60405180910390a15050565b6000816040516020016103c09190610b57565b604051602081830303815290604052805190602001206000846040516103e69190610b57565b90815260200160405180910390206000016040516020016104079190610d6e565b6040516020818303038152906040528051906020012014905092915050565b600080826040516104379190610b57565b9081526020016040518091039020600101549050919050565b600073ffffffffffffffffffffffffffffffffffffffff166000846040516104789190610b57565b908152602001604051809103902060020160009054906101000a900473ffffffffffffffffffffffffffffffffffffffff1673ffffffffffffffffffffffffffffffffffffffff1614610500576040517f08c379a00000000000000000000000000000000000000000000000000000000081526004016104f790610dd1565b60405180910390fd5b60405180606001604052808381526020018281526020013373ffffffffffffffffffffffffffffffffffffffff168152506000846040516105419190610b57565b908152602001604051809103902060008201518160000190816105649190610f88565b506020820151816001015560408201518160020160006101000a81548173ffffffffffffffffffffffffffffffffffffffff021916908373ffffffffffffffffffffffffffffffffffffffff1602179055509050507f787f9f72b4c348cf9330f605928c0e4a7ce2dc2c4fcfed70e3fa82d8b1dc84598382336040516105ec93929190610add565b60405180910390a1505050565b60008180516020810182018051848252602083016020850120818352809550505050505060009150905080600001805461063290610b9d565b80601f016020809104026020016040519081016040528092919081815260200182805461065e90610b9d565b80156106ab5780601f10610680576101008083540402835291602001916106ab565b820191906000526020600020905b81548152906001019060200180831161068e57829003601f168201915b5050505050908060010154908060020160009054906101000a900473ffffffffffffffffffffffffffffffffffffffff16905083565b6000604051905090565b600080fd5b600080fd5b600080fd5b600080fd5b6000601f19601f8301169050919050565b7f4e487b7100000000000000000000000000000000000000000000000000000000600052604160045260246000fd5b610748826106ff565b810181811067ffffffffffffffff8211171561076757610766610710565b5b80604052505050565b600061077a6106e1565b9050610786828261073f565b919050565b600067ffffffffffffffff8211156107a6576107a5610710565b5b6107af826106ff565b9050602081019050919050565b82818337600083830152505050565b60006107de6107d98461078b565b610770565b9050828152602081018484840111156107fa576107f96106fa565b5b6108058482856107bc565b509392505050565b600082601f830112610822576108216106f5565b5b81356108328482602086016107cb565b91505092915050565b600060208284031215610851576108506106eb565b5b600082013567ffffffffffffffff81111561086f5761086e6106f0565b5b61087b8482850161080d565b91505092915050565b6000806040838503121561089b5761089a6106eb565b5b600083013567ffffffffffffffff8111156108b9576108b86106f0565b5b6108c58582860161080d565b925050602083013567ffffffffffffffff8111156108e6576108e56106f0565b5b6108f28582860161080d565b9150509250929050565b60008115159050919050565b610911816108fc565b82525050565b600060208201905061092c6000830184610908565b92915050565b6000819050919050565b61094581610932565b82525050565b6000602082019050610960600083018461093c565b92915050565b61096f81610932565b811461097a57600080fd5b50565b60008135905061098c81610966565b92915050565b6000806000606084860312156109ab576109aa6106eb565b5b600084013567ffffffffffffffff8111156109c9576109c86106f0565b5b6109d58682870161080d565b935050602084013567ffffffffffffffff8111156109f6576109f56106f0565b5b610a028682870161080d565b9250506040610a138682870161097d565b9150509250925092565b600081519050919050565b600082825260208201905092915050565b60005b83811015610a57578082015181840152602081019050610a3c565b60008484015250505050565b6000610a6e82610a1d565b610a788185610a28565b9350610a88818560208601610a39565b610a91816106ff565b840191505092915050565b600073ffffffffffffffffffffffffffffffffffffffff82169050919050565b6000610ac782610a9c565b9050919050565b610ad781610abc565b82525050565b60006060820190508181036000830152610af78186610a63565b9050610b06602083018561093c565b610b136040830184610ace565b949350505050565b600081905092915050565b6000610b3182610a1d565b610b3b8185610b1b565b9350610b4b818560208601610a39565b80840191505092915050565b6000610b638284610b26565b915081905092915050565b7f4e487b7100000000000000000000000000000000000000000000000000000000600052602260045260246000fd5b60006002820490506001821680610bb557607f821691505b602082108103610bc857610bc7610b6e565b5b50919050565b7f46696c65206e6f7420666f756e64000000000000000000000000000000000000600082015250565b6000610c04600e83610a28565b9150610c0f82610bce565b602082019050919050565b60006020820190508181036000830152610c3381610bf7565b9050919050565b7f496e73756666696369656e74207061796d656e74000000000000000000000000600082015250565b6000610c70601483610a28565b9150610c7b82610c3a565b602082019050919050565b60006020820190508181036000830152610c9f81610c63565b9050919050565b60006040820190508181036000830152610cc08185610a63565b9050610ccf6020830184610ace565b9392505050565b60008190508160005260206000209050919050565b60008154610cf881610b9d565b610d028186610b1b565b94506001821660008114610d1d5760018114610d3257610d65565b60ff1983168652811515820286019350610d65565b610d3b85610cd6565b60005b83811015610d5d57815481890152600182019150602081019050610d3e565b838801955050505b50505092915050565b6000610d7a8284610ceb565b915081905092915050565b7f46696c6520616c72656164792065786973747300000000000000000000000000600082015250565b6000610dbb601383610a28565b9150610dc682610d85565b602082019050919050565b60006020820190508181036000830152610dea81610dae565b9050919050565b60006020601f8301049050919050565b600082821b905092915050565b600060088302610e3e7fffffffffffffffffffffffffffffffffffffffffffffffffffffffffffffffff82610e01565b610e488683610e01565b95508019841693508086168417925050509392505050565b6000819050919050565b6000610e85610e80610e7b84610932565b610e60565b610932565b9050919050565b6000819050919050565b610e9f83610e6a565b610eb3610eab82610e8c565b848454610e0e565b825550505050565b600090565b610ec8610ebb565b610ed3818484610e96565b505050565b5b81811015610ef757610eec600082610ec0565b600181019050610ed9565b5050565b601f821115610f3c57610f0d81610cd6565b610f1684610df1565b81016020851015610f25578190505b610f39610f3185610df1565b830182610ed8565b50505b505050565b600082821c905092915050565b6000610f5f60001984600802610f41565b1980831691505092915050565b6000610f788383610f4e565b9150826002028217905092915050565b610f9182610a1d565b67ffffffffffffffff811115610faa57610fa9610710565b5b610fb48254610b9d565b610fbf828285610efb565b600060209050601f831160018114610ff25760008415610fe0578287015190505b610fea8582610f6c565b865550611052565b601f19841661100086610cd6565b60005b8281101561102857848901518255600182019150602085019450602081019050611003565b868310156110455784890151611041601f891682610f4e565b8355505b6001600288020188555050505b50505050505056fea264697066735822122039645a620c59ab01558e22f7fd658f9588e58467665a9ff967951285867129aa64736f6c634300081c0033",
  "linkReferences": {},
  "deployedLinkReferences": {}
}