{
  "_format": "hh-sol-artifact-1",
  "contractName": "MarketplaceTwo",
  "sourceName": "contracts/MatketplaceTwo.sol",
  "abi": [
    {
      "anonymous": false,
      "inputs": [
        {
          "indexed": true,
          "internalType": "address",
          "name": "listerWallet",
          "type": "address"
        },
        {
          "indexed": false,
          "internalType": "string",
          "name": "webId",
          "type": "string"
        },
        {
          "indexed": false,
          "internalType": "string",
          "name": "fileUrl",
          "type": "string"
        },
        {
          "indexed": false,
          "internalType": "string",
          "name": "fileHash",
          "type": "string"
        },
        {
          "indexed": false,
          "internalType": "uint256",
          "name": "price",
          "type": "uint256"
        }
      ],
      "name": "FileStored",
      "type": "event"
    },
    {
      "anonymous": false,
      "inputs": [
        {
          "indexed": true,
          "internalType": "uint256",
          "name": "saleId",
          "type": "uint256"
        }
      ],
      "name": "SaleApproved",
      "type": "event"
    },
    {
      "anonymous": false,
      "inputs": [
        {
          "indexed": true,
          "internalType": "uint256",
          "name": "saleId",
          "type": "uint256"
        }
      ],
      "name": "SaleRefunded",
      "type": "event"
    },
    {
      "anonymous": false,
      "inputs": [
        {
          "indexed": true,
          "internalType": "uint256",
          "name": "saleId",
          "type": "uint256"
        }
      ],
      "name": "SaleRejected",
      "type": "event"
    },
    {
      "anonymous": false,
      "inputs": [
        {
          "indexed": true,
          "internalType": "uint256",
          "name": "saleId",
          "type": "uint256"
        },
        {
          "indexed": false,
          "internalType": "string",
          "name": "fileUrl",
          "type": "string"
        },
        {
          "indexed": true,
          "internalType": "address",
          "name": "buyerWallet",
          "type": "address"
        },
        {
          "indexed": true,
          "internalType": "address",
          "name": "sellerWallet",
          "type": "address"
        },
        {
          "indexed": false,
          "internalType": "string",
          "name": "buyerWebId",
          "type": "string"
        },
        {
          "indexed": false,
          "internalType": "uint256",
          "name": "amount",
          "type": "uint256"
        }
      ],
      "name": "SaleRequested",
      "type": "event"
    },
    {
      "inputs": [],
      "name": "REFUND_TIMEOUT",
      "outputs": [
        {
          "internalType": "uint256",
          "name": "",
          "type": "uint256"
        }
      ],
      "stateMutability": "view",
      "type": "function"
    },
    {
      "inputs": [
        {
          "internalType": "uint256",
          "name": "saleId",
          "type": "uint256"
        }
      ],
      "name": "approveSale",
      "outputs": [],
      "stateMutability": "nonpayable",
      "type": "function"
    },
    {
      "inputs": [
        {
          "internalType": "string",
          "name": "fileUrl",
          "type": "string"
        }
      ],
      "name": "getFileData",
      "outputs": [
        {
          "internalType": "address",
          "name": "",
          "type": "address"
        },
        {
          "internalType": "string",
          "name": "",
          "type": "string"
        },
        {
          "internalType": "string",
          "name": "",
          "type": "string"
        },
        {
          "internalType": "string",
          "name": "",
          "type": "string"
        },
        {
          "internalType": "uint256",
          "name": "",
          "type": "uint256"
        }
      ],
      "stateMutability": "view",
      "type": "function"
    },
    {
      "inputs": [
        {
          "internalType": "string",
          "name": "fileUrl",
          "type": "string"
        }
      ],
      "name": "getFilePrice",
      "outputs": [
        {
          "internalType": "uint256",
          "name": "",
          "type": "uint256"
        }
      ],
      "stateMutability": "view",
      "type": "function"
    },
    {
      "inputs": [
        {
          "internalType": "uint256",
          "name": "saleId",
          "type": "uint256"
        }
      ],
      "name": "getSaleStatus",
      "outputs": [
        {
          "internalType": "enum MarketplaceTwo.SaleStatus",
          "name": "",
          "type": "uint8"
        }
      ],
      "stateMutability": "view",
      "type": "function"
    },
    {
      "inputs": [
        {
          "internalType": "string",
          "name": "fileUrl",
          "type": "string"
        },
        {
          "internalType": "string",
          "name": "buyerWebId",
          "type": "string"
        }
      ],
      "name": "purchaseFile",
      "outputs": [
        {
          "internalType": "uint256",
          "name": "",
          "type": "uint256"
        }
      ],
      "stateMutability": "payable",
      "type": "function"
    },
    {
      "inputs": [
        {
          "internalType": "uint256",
          "name": "saleId",
          "type": "uint256"
        }
      ],
      "name": "refundAfterTimeout",
      "outputs": [],
      "stateMutability": "nonpayable",
      "type": "function"
    },
    {
      "inputs": [
        {
          "internalType": "uint256",
          "name": "saleId",
          "type": "uint256"
        }
      ],
      "name": "rejectSale",
      "outputs": [],
      "stateMutability": "nonpayable",
      "type": "function"
    },
    {
      "inputs": [],
      "name": "saleCounter",
      "outputs": [
        {
          "internalType": "uint256",
          "name": "",
          "type": "uint256"
        }
      ],
      "stateMutability": "view",
      "type": "function"
    },
    {
      "inputs": [
        {
          "internalType": "uint256",
          "name": "",
          "type": "uint256"
        }
      ],
      "name": "sales",
      "outputs": [
        {
          "internalType": "uint256",
          "name": "saleId",
          "type": "uint256"
        },
        {
          "internalType": "string",
          "name": "fileUrl",
          "type": "string"
        },
        {
          "internalType": "address payable",
          "name": "buyerWallet",
          "type": "address"
        },
        {
          "internalType": "address payable",
          "name": "sellerWallet",
          "type": "address"
        },
        {
          "internalType": "string",
          "name": "buyerWebId",
          "type": "string"
        },
        {
          "internalType": "uint256",
          "name": "amount",
          "type": "uint256"
        },
        {
          "internalType": "enum MarketplaceTwo.SaleStatus",
          "name": "status",
          "type": "uint8"
        },
        {
          "internalType": "uint256",
          "name": "createdAt",
          "type": "uint256"
        }
      ],
      "stateMutability": "view",
      "type": "function"
    },
    {
      "inputs": [
        {
          "internalType": "string",
          "name": "fileUrl",
          "type": "string"
        },
        {
          "internalType": "string",
          "name": "fileHash",
          "type": "string"
        },
        {
          "internalType": "uint256",
          "name": "price",
          "type": "uint256"
        },
        {
          "internalType": "string",
          "name": "webId",
          "type": "string"
        }
      ],
      "name": "storeFileHashWithPrice",
      "outputs": [],
      "stateMutability": "nonpayable",
      "type": "function"
    },
    {
      "inputs": [
        {
          "internalType": "string",
          "name": "fileUrl",
          "type": "string"
        },
        {
          "internalType": "string",
          "name": "hashToCheck",
          "type": "string"
        }
      ],
      "name": "verifyFileHash",
      "outputs": [
        {
          "internalType": "bool",
          "name": "",
          "type": "bool"
        }
      ],
      "stateMutability": "view",
      "type": "function"
    }
  ],
  "bytecode": "0x6080604052348015600f57600080fd5b506125918061001f6000396000f3fe6080604052600436106100a75760003560e01c80637609b8e4116100645780637609b8e4146101b857806378998bbf146101f55780637d57900a14610236578063b5f522f714610261578063cd72ada8146102a5578063d254d2c6146102d5576100a7565b80630387b0a2146100ac5780630c4b10d4146100d757806314a72feb146101005780631f4e6e9e146101295780634ad14858146101665780636cb326bf1461018f575b600080fd5b3480156100b857600080fd5b506100c1610312565b6040516100ce9190611575565b60405180910390f35b3480156100e357600080fd5b506100fe60048036038101906100f991906115d0565b610318565b005b34801561010c57600080fd5b50610127600480360381019061012291906115d0565b6105c1565b005b34801561013557600080fd5b50610150600480360381019061014b9190611743565b610815565b60405161015d91906117d6565b60405180910390f35b34801561017257600080fd5b5061018d600480360381019061018891906117f1565b61088e565b005b34801561019b57600080fd5b506101b660048036038101906101b191906115d0565b610a45565b005b3480156101c457600080fd5b506101df60048036038101906101da91906118ac565b610c99565b6040516101ec9190611575565b60405180910390f35b34801561020157600080fd5b5061021c600480360381019061021791906118ac565b610d31565b60405161022d9594939291906119b5565b60405180910390f35b34801561024257600080fd5b5061024b610fc4565b6040516102589190611575565b60405180910390f35b34801561026d57600080fd5b50610288600480360381019061028391906115d0565b610fcb565b60405161029c989796959493929190611ab5565b60405180910390f35b6102bf60048036038101906102ba9190611743565b611170565b6040516102cc9190611575565b60405180910390f35b3480156102e157600080fd5b506102fc60048036038101906102f791906115d0565b61152f565b6040516103099190611b41565b60405180910390f35b60025481565b60006001600083815260200190815260200160002090506000600381111561034357610342611a3e565b5b8160060160009054906101000a900460ff16600381111561036757610366611a3e565b5b146103a7576040517f08c379a000000000000000000000000000000000000000000000000000000000815260040161039e90611ba8565b60405180910390fd5b8060020160009054906101000a900473ffffffffffffffffffffffffffffffffffffffff1673ffffffffffffffffffffffffffffffffffffffff163373ffffffffffffffffffffffffffffffffffffffff1614610439576040517f08c379a000000000000000000000000000000000000000000000000000000000815260040161043090611c14565b60405180910390fd5b62015180816007015461044c9190611c63565b42101561048e576040517f08c379a000000000000000000000000000000000000000000000000000000000815260040161048590611ce3565b60405180910390fd5b60038160060160006101000a81548160ff021916908360038111156104b6576104b5611a3e565b5b021790555060008160020160009054906101000a900473ffffffffffffffffffffffffffffffffffffffff1673ffffffffffffffffffffffffffffffffffffffff16826005015460405161050990611d34565b60006040518083038185875af1925050503d8060008114610546576040519150601f19603f3d011682016040523d82523d6000602084013e61054b565b606091505b505090508061058f576040517f08c379a000000000000000000000000000000000000000000000000000000000815260040161058690611d95565b60405180910390fd5b827f642fdc8ecdbde141c448accb7e6f08417ede963dc9bafa755d8fef730ea9a46660405160405180910390a2505050565b6000600160008381526020019081526020016000209050600060038111156105ec576105eb611a3e565b5b8160060160009054906101000a900460ff1660038111156106105761060f611a3e565b5b14610650576040517f08c379a000000000000000000000000000000000000000000000000000000000815260040161064790611ba8565b60405180910390fd5b8060030160009054906101000a900473ffffffffffffffffffffffffffffffffffffffff1673ffffffffffffffffffffffffffffffffffffffff163373ffffffffffffffffffffffffffffffffffffffff16146106e2576040517f08c379a00000000000000000000000000000000000000000000000000000000081526004016106d990611e01565b60405180910390fd5b60018160060160006101000a81548160ff0219169083600381111561070a57610709611a3e565b5b021790555060008160030160009054906101000a900473ffffffffffffffffffffffffffffffffffffffff1673ffffffffffffffffffffffffffffffffffffffff16826005015460405161075d90611d34565b60006040518083038185875af1925050503d806000811461079a576040519150601f19603f3d011682016040523d82523d6000602084013e61079f565b606091505b50509050806107e3576040517f08c379a00000000000000000000000000000000000000000000000000000000081526004016107da90611e6d565b60405180910390fd5b827fbb04bea84885a72e3891993318adefb442812fa459948e555c4e09692e352e6060405160405180910390a2505050565b6000816040516020016108289190611ec9565b6040516020818303038152906040528051906020012060008460405161084e9190611ec9565b908152602001604051809103902060030160405160200161086f9190611fd8565b6040516020818303038152906040528051906020012014905092915050565b600082116108d1576040517f08c379a00000000000000000000000000000000000000000000000000000000081526004016108c89061203b565b60405180910390fd5b6040518060c001604052803373ffffffffffffffffffffffffffffffffffffffff168152602001828152602001858152602001848152602001838152602001600115158152506000856040516109279190611ec9565b908152602001604051809103902060008201518160000160006101000a81548173ffffffffffffffffffffffffffffffffffffffff021916908373ffffffffffffffffffffffffffffffffffffffff160217905550602082015181600101908161099191906121f2565b5060408201518160020190816109a791906121f2565b5060608201518160030190816109bd91906121f2565b506080820151816004015560a08201518160050160006101000a81548160ff0219169083151502179055509050503373ffffffffffffffffffffffffffffffffffffffff167fe9cb8c091be2204dad31f594752f20c6257f7a8cd498130193c5914a9a8932eb82868686604051610a3794939291906122c4565b60405180910390a250505050565b600060016000838152602001908152602001600020905060006003811115610a7057610a6f611a3e565b5b8160060160009054906101000a900460ff166003811115610a9457610a93611a3e565b5b14610ad4576040517f08c379a0000000000000000000000000000000000000000000000000000000008152600401610acb90611ba8565b60405180910390fd5b8060030160009054906101000a900473ffffffffffffffffffffffffffffffffffffffff1673ffffffffffffffffffffffffffffffffffffffff163373ffffffffffffffffffffffffffffffffffffffff1614610b66576040517f08c379a0000000000000000000000000000000000000000000000000000000008152600401610b5d9061236a565b60405180910390fd5b60028160060160006101000a81548160ff02191690836003811115610b8e57610b8d611a3e565b5b021790555060008160020160009054906101000a900473ffffffffffffffffffffffffffffffffffffffff1673ffffffffffffffffffffffffffffffffffffffff168260050154604051610be190611d34565b60006040518083038185875af1925050503d8060008114610c1e576040519150601f19603f3d011682016040523d82523d6000602084013e610c23565b606091505b5050905080610c67576040517f08c379a0000000000000000000000000000000000000000000000000000000008152600401610c5e90611d95565b60405180910390fd5b827f6c9fce95823a2b23b3688377253801890402fc7ec3a0c59fb58f807e86cfa0e760405160405180910390a2505050565b60008082604051610caa9190611ec9565b908152602001604051809103902060050160009054906101000a900460ff16610d08576040517f08c379a0000000000000000000000000000000000000000000000000000000008152600401610cff906123d6565b60405180910390fd5b600082604051610d189190611ec9565b9081526020016040518091039020600401549050919050565b60006060806060600080600087604051610d4b9190611ec9565b90815260200160405180910390206040518060c00160405290816000820160009054906101000a900473ffffffffffffffffffffffffffffffffffffffff1673ffffffffffffffffffffffffffffffffffffffff1673ffffffffffffffffffffffffffffffffffffffff168152602001600182018054610dca90611f0f565b80601f0160208091040260200160405190810160405280929190818152602001828054610df690611f0f565b8015610e435780601f10610e1857610100808354040283529160200191610e43565b820191906000526020600020905b815481529060010190602001808311610e2657829003601f168201915b50505050508152602001600282018054610e5c90611f0f565b80601f0160208091040260200160405190810160405280929190818152602001828054610e8890611f0f565b8015610ed55780601f10610eaa57610100808354040283529160200191610ed5565b820191906000526020600020905b815481529060010190602001808311610eb857829003601f168201915b50505050508152602001600382018054610eee90611f0f565b80601f0160208091040260200160405190810160405280929190818152602001828054610f1a90611f0f565b8015610f675780601f10610f3c57610100808354040283529160200191610f67565b820191906000526020600020905b815481529060010190602001808311610f4a57829003601f168201915b50505050508152602001600482015481526020016005820160009054906101000a900460ff161515151581525050905080600001518160200151826040015183606001518460800151955095509550955095505091939590929450565b6201518081565b6001602052806000526040600020600091509050806000015490806001018054610ff490611f0f565b80601f016020809104026020016040519081016040528092919081815260200182805461102090611f0f565b801561106d5780601f106110425761010080835404028352916020019161106d565b820191906000526020600020905b81548152906001019060200180831161105057829003601f168201915b5050505050908060020160009054906101000a900473ffffffffffffffffffffffffffffffffffffffff16908060030160009054906101000a900473ffffffffffffffffffffffffffffffffffffffff16908060040180546110ce90611f0f565b80601f01602080910402602001604051908101604052809291908181526020018280546110fa90611f0f565b80156111475780601f1061111c57610100808354040283529160200191611147565b820191906000526020600020905b81548152906001019060200180831161112a57829003601f168201915b5050505050908060050154908060060160009054906101000a900460ff16908060070154905088565b6000806000846040516111839190611ec9565b908152602001604051809103902090508060050160009054906101000a900460ff166111e4576040517f08c379a00000000000000000000000000000000000000000000000000000000081526004016111db906123d6565b60405180910390fd5b8060040154341461122a576040517f08c379a000000000000000000000000000000000000000000000000000000000815260040161122190612442565b60405180910390fd5b8060000160009054906101000a900473ffffffffffffffffffffffffffffffffffffffff1673ffffffffffffffffffffffffffffffffffffffff163373ffffffffffffffffffffffffffffffffffffffff16036112bc576040517f08c379a00000000000000000000000000000000000000000000000000000000081526004016112b3906124ae565b60405180910390fd5b600260008154809291906112cf906124ce565b919050555060405180610100016040528060025481526020018581526020013373ffffffffffffffffffffffffffffffffffffffff1681526020018260000160009054906101000a900473ffffffffffffffffffffffffffffffffffffffff1673ffffffffffffffffffffffffffffffffffffffff1681526020018481526020013481526020016000600381111561136a57611369611a3e565b5b8152602001428152506001600060025481526020019081526020016000206000820151816000015560208201518160010190816113a791906121f2565b5060408201518160020160006101000a81548173ffffffffffffffffffffffffffffffffffffffff021916908373ffffffffffffffffffffffffffffffffffffffff16021790555060608201518160030160006101000a81548173ffffffffffffffffffffffffffffffffffffffff021916908373ffffffffffffffffffffffffffffffffffffffff160217905550608082015181600401908161144b91906121f2565b5060a0820151816005015560c08201518160060160006101000a81548160ff0219169083600381111561148157611480611a3e565b5b021790555060e082015181600701559050508060000160009054906101000a900473ffffffffffffffffffffffffffffffffffffffff1673ffffffffffffffffffffffffffffffffffffffff163373ffffffffffffffffffffffffffffffffffffffff166002547f5eb0f20896a7e97d43abcdd5cdd45167b55d62ad974b7d2fd311b0e7de87e42c87873460405161151b93929190612516565b60405180910390a460025491505092915050565b60006001600083815260200190815260200160002060060160009054906101000a900460ff169050919050565b6000819050919050565b61156f8161155c565b82525050565b600060208201905061158a6000830184611566565b92915050565b6000604051905090565b600080fd5b600080fd5b6115ad8161155c565b81146115b857600080fd5b50565b6000813590506115ca816115a4565b92915050565b6000602082840312156115e6576115e561159a565b5b60006115f4848285016115bb565b91505092915050565b600080fd5b600080fd5b6000601f19601f8301169050919050565b7f4e487b7100000000000000000000000000000000000000000000000000000000600052604160045260246000fd5b61165082611607565b810181811067ffffffffffffffff8211171561166f5761166e611618565b5b80604052505050565b6000611682611590565b905061168e8282611647565b919050565b600067ffffffffffffffff8211156116ae576116ad611618565b5b6116b782611607565b9050602081019050919050565b82818337600083830152505050565b60006116e66116e184611693565b611678565b90508281526020810184848401111561170257611701611602565b5b61170d8482856116c4565b509392505050565b600082601f83011261172a576117296115fd565b5b813561173a8482602086016116d3565b91505092915050565b6000806040838503121561175a5761175961159a565b5b600083013567ffffffffffffffff8111156117785761177761159f565b5b61178485828601611715565b925050602083013567ffffffffffffffff8111156117a5576117a461159f565b5b6117b185828601611715565b9150509250929050565b60008115159050919050565b6117d0816117bb565b82525050565b60006020820190506117eb60008301846117c7565b92915050565b6000806000806080858703121561180b5761180a61159a565b5b600085013567ffffffffffffffff8111156118295761182861159f565b5b61183587828801611715565b945050602085013567ffffffffffffffff8111156118565761185561159f565b5b61186287828801611715565b9350506040611873878288016115bb565b925050606085013567ffffffffffffffff8111156118945761189361159f565b5b6118a087828801611715565b91505092959194509250565b6000602082840312156118c2576118c161159a565b5b600082013567ffffffffffffffff8111156118e0576118df61159f565b5b6118ec84828501611715565b91505092915050565b600073ffffffffffffffffffffffffffffffffffffffff82169050919050565b6000611920826118f5565b9050919050565b61193081611915565b82525050565b600081519050919050565b600082825260208201905092915050565b60005b83811015611970578082015181840152602081019050611955565b60008484015250505050565b600061198782611936565b6119918185611941565b93506119a1818560208601611952565b6119aa81611607565b840191505092915050565b600060a0820190506119ca6000830188611927565b81810360208301526119dc818761197c565b905081810360408301526119f0818661197c565b90508181036060830152611a04818561197c565b9050611a136080830184611566565b9695505050505050565b6000611a28826118f5565b9050919050565b611a3881611a1d565b82525050565b7f4e487b7100000000000000000000000000000000000000000000000000000000600052602160045260246000fd5b60048110611a7e57611a7d611a3e565b5b50565b6000819050611a8f82611a6d565b919050565b6000611a9f82611a81565b9050919050565b611aaf81611a94565b82525050565b600061010082019050611acb600083018b611566565b8181036020830152611add818a61197c565b9050611aec6040830189611a2f565b611af96060830188611a2f565b8181036080830152611b0b818761197c565b9050611b1a60a0830186611566565b611b2760c0830185611aa6565b611b3460e0830184611566565b9998505050505050505050565b6000602082019050611b566000830184611aa6565b92915050565b7f53616c65206973206e6f742070656e64696e6700000000000000000000000000600082015250565b6000611b92601383611941565b9150611b9d82611b5c565b602082019050919050565b60006020820190508181036000830152611bc181611b85565b9050919050565b7f4f6e6c792062757965722063616e207265717565737420726566756e64000000600082015250565b6000611bfe601d83611941565b9150611c0982611bc8565b602082019050919050565b60006020820190508181036000830152611c2d81611bf1565b9050919050565b7f4e487b7100000000000000000000000000000000000000000000000000000000600052601160045260246000fd5b6000611c6e8261155c565b9150611c798361155c565b9250828201905080821115611c9157611c90611c34565b5b92915050565b7f526566756e642074696d656f7574206e6f742072656163686564000000000000600082015250565b6000611ccd601a83611941565b9150611cd882611c97565b602082019050919050565b60006020820190508181036000830152611cfc81611cc0565b9050919050565b600081905092915050565b50565b6000611d1e600083611d03565b9150611d2982611d0e565b600082019050919050565b6000611d3f82611d11565b9150819050919050565b7f526566756e64206661696c656400000000000000000000000000000000000000600082015250565b6000611d7f600d83611941565b9150611d8a82611d49565b602082019050919050565b60006020820190508181036000830152611dae81611d72565b9050919050565b7f4f6e6c792073656c6c65722063616e20617070726f7665000000000000000000600082015250565b6000611deb601783611941565b9150611df682611db5565b602082019050919050565b60006020820190508181036000830152611e1a81611dde565b9050919050565b7f5061796d656e74207472616e73666572206661696c6564000000000000000000600082015250565b6000611e57601783611941565b9150611e6282611e21565b602082019050919050565b60006020820190508181036000830152611e8681611e4a565b9050919050565b600081905092915050565b6000611ea382611936565b611ead8185611e8d565b9350611ebd818560208601611952565b80840191505092915050565b6000611ed58284611e98565b915081905092915050565b7f4e487b7100000000000000000000000000000000000000000000000000000000600052602260045260246000fd5b60006002820490506001821680611f2757607f821691505b602082108103611f3a57611f39611ee0565b5b50919050565b60008190508160005260206000209050919050565b60008154611f6281611f0f565b611f6c8186611e8d565b94506001821660008114611f875760018114611f9c57611fcf565b60ff1983168652811515820286019350611fcf565b611fa585611f40565b60005b83811015611fc757815481890152600182019150602081019050611fa8565b838801955050505b50505092915050565b6000611fe48284611f55565b915081905092915050565b7f5072696365206d7573742062652067726561746572207468616e207a65726f00600082015250565b6000612025601f83611941565b915061203082611fef565b602082019050919050565b6000602082019050818103600083015261205481612018565b9050919050565b60006020601f8301049050919050565b600082821b905092915050565b6000600883026120a87fffffffffffffffffffffffffffffffffffffffffffffffffffffffffffffffff8261206b565b6120b2868361206b565b95508019841693508086168417925050509392505050565b6000819050919050565b60006120ef6120ea6120e58461155c565b6120ca565b61155c565b9050919050565b6000819050919050565b612109836120d4565b61211d612115826120f6565b848454612078565b825550505050565b600090565b612132612125565b61213d818484612100565b505050565b5b818110156121615761215660008261212a565b600181019050612143565b5050565b601f8211156121a65761217781611f40565b6121808461205b565b8101602085101561218f578190505b6121a361219b8561205b565b830182612142565b50505b505050565b600082821c905092915050565b60006121c9600019846008026121ab565b1980831691505092915050565b60006121e283836121b8565b9150826002028217905092915050565b6121fb82611936565b67ffffffffffffffff81111561221457612213611618565b5b61221e8254611f0f565b612229828285612165565b600060209050601f83116001811461225c576000841561224a578287015190505b61225485826121d6565b8655506122bc565b601f19841661226a86611f40565b60005b828110156122925784890151825560018201915060208501945060208101905061226d565b868310156122af57848901516122ab601f8916826121b8565b8355505b6001600288020188555050505b505050505050565b600060808201905081810360008301526122de818761197c565b905081810360208301526122f2818661197c565b90508181036040830152612306818561197c565b90506123156060830184611566565b95945050505050565b7f4f6e6c792073656c6c65722063616e2072656a65637400000000000000000000600082015250565b6000612354601683611941565b915061235f8261231e565b602082019050919050565b6000602082019050818103600083015261238381612347565b9050919050565b7f46696c65206e6f7420666f756e64000000000000000000000000000000000000600082015250565b60006123c0600e83611941565b91506123cb8261238a565b602082019050919050565b600060208201905081810360008301526123ef816123b3565b9050919050565b7f496e636f72726563742070726963650000000000000000000000000000000000600082015250565b600061242c600f83611941565b9150612437826123f6565b602082019050919050565b6000602082019050818103600083015261245b8161241f565b9050919050565b7f53656c6c65722063616e6e6f7420627579206f776e206c697374696e67000000600082015250565b6000612498601d83611941565b91506124a382612462565b602082019050919050565b600060208201905081810360008301526124c78161248b565b9050919050565b60006124d98261155c565b91507fffffffffffffffffffffffffffffffffffffffffffffffffffffffffffffffff820361250b5761250a611c34565b5b600182019050919050565b60006060820190508181036000830152612530818661197c565b90508181036020830152612544818561197c565b90506125536040830184611566565b94935050505056fea264697066735822122066b187e75d709b03a7f92a836500576a94b01ffe1e4ddf002538d5d92051f5c264736f6c634300081c0033",
  "linkReferences": {},
  "deployedLinkReferences": {}
}