{
  "_format": "hh-sol-artifact-1",
  "contractName": "MarketplaceTwo",
  "sourceName": "contracts/MatketplaceTwo.sol",
  "abi": [
    {
      "anonymous": false,
      "inputs": [
        {
          "indexed": true,
          "internalType": "address",
          "name": "listerWallet",
          "type": "address"
        },
        {
          "indexed": false,
          "internalType": "string",
          "name": "webId",
          "type": "string"
        },
        {
          "indexed": false,
          "internalType": "string",
          "name": "fileUrl",
          "type": "string"
        },
        {
          "indexed": false,
          "internalType": "string",
          "name": "fileHash",
          "type": "string"
        },
        {
          "indexed": false,
          "internalType": "uint256",
          "name": "price",
          "type": "uint256"
        },
        {
          "indexed": false,
          "internalType": "uint256",
          "name": "listedAt",
          "type": "uint256"
        }
      ],
      "name": "FileStored",
      "type": "event"
    },
    {
      "anonymous": false,
      "inputs": [
        {
          "indexed": false,
          "internalType": "string",
          "name": "fileUrl",
          "type": "string"
        },
        {
          "indexed": true,
          "internalType": "address",
          "name": "listerWallet",
          "type": "address"
        }
      ],
      "name": "ListingDeleted",
      "type": "event"
    },
    {
      "anonymous": false,
      "inputs": [
        {
          "indexed": true,
          "internalType": "uint256",
          "name": "saleId",
          "type": "uint256"
        }
      ],
      "name": "SaleApproved",
      "type": "event"
    },
    {
      "anonymous": false,
      "inputs": [
        {
          "indexed": true,
          "internalType": "uint256",
          "name": "saleId",
          "type": "uint256"
        }
      ],
      "name": "SaleRefunded",
      "type": "event"
    },
    {
      "anonymous": false,
      "inputs": [
        {
          "indexed": true,
          "internalType": "uint256",
          "name": "saleId",
          "type": "uint256"
        }
      ],
      "name": "SaleRejected",
      "type": "event"
    },
    {
      "anonymous": false,
      "inputs": [
        {
          "indexed": true,
          "internalType": "uint256",
          "name": "saleId",
          "type": "uint256"
        },
        {
          "indexed": false,
          "internalType": "string",
          "name": "fileUrl",
          "type": "string"
        },
        {
          "indexed": true,
          "internalType": "address",
          "name": "buyerWallet",
          "type": "address"
        },
        {
          "indexed": true,
          "internalType": "address",
          "name": "sellerWallet",
          "type": "address"
        },
        {
          "indexed": false,
          "internalType": "string",
          "name": "buyerWebId",
          "type": "string"
        },
        {
          "indexed": false,
          "internalType": "uint256",
          "name": "amount",
          "type": "uint256"
        }
      ],
      "name": "SaleRequested",
      "type": "event"
    },
    {
      "inputs": [],
      "name": "REFUND_TIMEOUT",
      "outputs": [
        {
          "internalType": "uint256",
          "name": "",
          "type": "uint256"
        }
      ],
      "stateMutability": "view",
      "type": "function"
    },
    {
      "inputs": [
        {
          "internalType": "uint256",
          "name": "saleId",
          "type": "uint256"
        }
      ],
      "name": "approveSale",
      "outputs": [],
      "stateMutability": "nonpayable",
      "type": "function"
    },
    {
      "inputs": [
        {
          "internalType": "string",
          "name": "fileUrl",
          "type": "string"
        }
      ],
      "name": "deleteListing",
      "outputs": [],
      "stateMutability": "nonpayable",
      "type": "function"
    },
    {
      "inputs": [
        {
          "internalType": "string",
          "name": "fileUrl",
          "type": "string"
        }
      ],
      "name": "getFileData",
      "outputs": [
        {
          "internalType": "address",
          "name": "",
          "type": "address"
        },
        {
          "internalType": "string",
          "name": "",
          "type": "string"
        },
        {
          "internalType": "string",
          "name": "",
          "type": "string"
        },
        {
          "internalType": "string",
          "name": "",
          "type": "string"
        },
        {
          "internalType": "uint256",
          "name": "",
          "type": "uint256"
        },
        {
          "internalType": "bool",
          "name": "",
          "type": "bool"
        },
        {
          "internalType": "uint256",
          "name": "",
          "type": "uint256"
        }
      ],
      "stateMutability": "view",
      "type": "function"
    },
    {
      "inputs": [
        {
          "internalType": "string",
          "name": "fileUrl",
          "type": "string"
        }
      ],
      "name": "getFilePrice",
      "outputs": [
        {
          "internalType": "uint256",
          "name": "",
          "type": "uint256"
        }
      ],
      "stateMutability": "view",
      "type": "function"
    },
    {
      "inputs": [
        {
          "internalType": "uint256",
          "name": "saleId",
          "type": "uint256"
        }
      ],
      "name": "getSaleStatus",
      "outputs": [
        {
          "internalType": "enum MarketplaceTwo.SaleStatus",
          "name": "",
          "type": "uint8"
        }
      ],
      "stateMutability": "view",
      "type": "function"
    },
    {
      "inputs": [
        {
          "internalType": "string",
          "name": "fileUrl",
          "type": "string"
        },
        {
          "internalType": "string",
          "name": "buyerWebId",
          "type": "string"
        }
      ],
      "name": "purchaseFile",
      "outputs": [
        {
          "internalType": "uint256",
          "name": "",
          "type": "uint256"
        }
      ],
      "stateMutability": "payable",
      "type": "function"
    },
    {
      "inputs": [
        {
          "internalType": "uint256",
          "name": "saleId",
          "type": "uint256"
        }
      ],
      "name": "refundAfterTimeout",
      "outputs": [],
      "stateMutability": "nonpayable",
      "type": "function"
    },
    {
      "inputs": [
        {
          "internalType": "uint256",
          "name": "saleId",
          "type": "uint256"
        }
      ],
      "name": "rejectSale",
      "outputs": [],
      "stateMutability": "nonpayable",
      "type": "function"
    },
    {
      "inputs": [],
      "name": "saleCounter",
      "outputs": [
        {
          "internalType": "uint256",
          "name": "",
          "type": "uint256"
        }
      ],
      "stateMutability": "view",
      "type": "function"
    },
    {
      "inputs": [
        {
          "internalType": "uint256",
          "name": "",
          "type": "uint256"
        }
      ],
      "name": "sales",
      "outputs": [
        {
          "internalType": "uint256",
          "name": "saleId",
          "type": "uint256"
        },
        {
          "internalType": "string",
          "name": "fileUrl",
          "type": "string"
        },
        {
          "internalType": "address payable",
          "name": "buyerWallet",
          "type": "address"
        },
        {
          "internalType": "address payable",
          "name": "sellerWallet",
          "type": "address"
        },
        {
          "internalType": "string",
          "name": "buyerWebId",
          "type": "string"
        },
        {
          "internalType": "uint256",
          "name": "amount",
          "type": "uint256"
        },
        {
          "internalType": "enum MarketplaceTwo.SaleStatus",
          "name": "status",
          "type": "uint8"
        },
        {
          "internalType": "uint256",
          "name": "createdAt",
          "type": "uint256"
        }
      ],
      "stateMutability": "view",
      "type": "function"
    },
    {
      "inputs": [
        {
          "internalType": "string",
          "name": "fileUrl",
          "type": "string"
        },
        {
          "internalType": "string",
          "name": "fileHash",
          "type": "string"
        },
        {
          "internalType": "uint256",
          "name": "price",
          "type": "uint256"
        },
        {
          "internalType": "string",
          "name": "webId",
          "type": "string"
        }
      ],
      "name": "storeFileHashWithPrice",
      "outputs": [],
      "stateMutability": "nonpayable",
      "type": "function"
    },
    {
      "inputs": [
        {
          "internalType": "string",
          "name": "fileUrl",
          "type": "string"
        },
        {
          "internalType": "string",
          "name": "hashToCheck",
          "type": "string"
        }
      ],
      "name": "verifyFileHash",
      "outputs": [
        {
          "internalType": "bool",
          "name": "",
          "type": "bool"
        }
      ],
      "stateMutability": "view",
      "type": "function"
    }
  ],
  "bytecode": "0x6080604052348015600f57600080fd5b50612a5d8061001f6000396000f3fe6080604052600436106100c25760003560e01c80636cb326bf1161007f5780637d57900a116100595780637d57900a1461027c578063b5f522f7146102a7578063cd72ada8146102eb578063d254d2c61461031b576100c2565b80636cb326bf146101d35780637609b8e4146101fc57806378998bbf14610239576100c2565b80630387b0a2146100c75780630c4b10d4146100f257806314a72feb1461011b5780631f4e6e9e14610144578063295a8b84146101815780634ad14858146101aa575b600080fd5b3480156100d357600080fd5b506100dc610358565b6040516100e99190611845565b60405180910390f35b3480156100fe57600080fd5b50610119600480360381019061011491906118a0565b61035e565b005b34801561012757600080fd5b50610142600480360381019061013d91906118a0565b610607565b005b34801561015057600080fd5b5061016b60048036038101906101669190611a13565b61085b565b6040516101789190611aa6565b60405180910390f35b34801561018d57600080fd5b506101a860048036038101906101a39190611ac1565b6108d4565b005b3480156101b657600080fd5b506101d160048036038101906101cc9190611b0a565b610a98565b005b3480156101df57600080fd5b506101fa60048036038101906101f591906118a0565b610c8b565b005b34801561020857600080fd5b50610223600480360381019061021e9190611ac1565b610edf565b6040516102309190611845565b60405180910390f35b34801561024557600080fd5b50610260600480360381019061025b9190611ac1565b610f77565b6040516102739796959493929190611c85565b60405180910390f35b34801561028857600080fd5b50610291611243565b60405161029e9190611845565b60405180910390f35b3480156102b357600080fd5b506102ce60048036038101906102c991906118a0565b61124a565b6040516102e2989796959493929190611da1565b60405180910390f35b61030560048036038101906103009190611a13565b6113ef565b6040516103129190611845565b60405180910390f35b34801561032757600080fd5b50610342600480360381019061033d91906118a0565b6117ff565b60405161034f9190611e2d565b60405180910390f35b60025481565b60006001600083815260200190815260200160002090506000600381111561038957610388611d2a565b5b8160060160009054906101000a900460ff1660038111156103ad576103ac611d2a565b5b146103ed576040517f08c379a00000000000000000000000000000000000000000000000000000000081526004016103e490611e94565b60405180910390fd5b8060020160009054906101000a900473ffffffffffffffffffffffffffffffffffffffff1673ffffffffffffffffffffffffffffffffffffffff163373ffffffffffffffffffffffffffffffffffffffff161461047f576040517f08c379a000000000000000000000000000000000000000000000000000000000815260040161047690611f00565b60405180910390fd5b6201518081600701546104929190611f4f565b4210156104d4576040517f08c379a00000000000000000000000000000000000000000000000000000000081526004016104cb90611fcf565b60405180910390fd5b60038160060160006101000a81548160ff021916908360038111156104fc576104fb611d2a565b5b021790555060008160020160009054906101000a900473ffffffffffffffffffffffffffffffffffffffff1673ffffffffffffffffffffffffffffffffffffffff16826005015460405161054f90612020565b60006040518083038185875af1925050503d806000811461058c576040519150601f19603f3d011682016040523d82523d6000602084013e610591565b606091505b50509050806105d5576040517f08c379a00000000000000000000000000000000000000000000000000000000081526004016105cc90612081565b60405180910390fd5b827f642fdc8ecdbde141c448accb7e6f08417ede963dc9bafa755d8fef730ea9a46660405160405180910390a2505050565b60006001600083815260200190815260200160002090506000600381111561063257610631611d2a565b5b8160060160009054906101000a900460ff16600381111561065657610655611d2a565b5b14610696576040517f08c379a000000000000000000000000000000000000000000000000000000000815260040161068d90611e94565b60405180910390fd5b8060030160009054906101000a900473ffffffffffffffffffffffffffffffffffffffff1673ffffffffffffffffffffffffffffffffffffffff163373ffffffffffffffffffffffffffffffffffffffff1614610728576040517f08c379a000000000000000000000000000000000000000000000000000000000815260040161071f906120ed565b60405180910390fd5b60018160060160006101000a81548160ff021916908360038111156107505761074f611d2a565b5b021790555060008160030160009054906101000a900473ffffffffffffffffffffffffffffffffffffffff1673ffffffffffffffffffffffffffffffffffffffff1682600501546040516107a390612020565b60006040518083038185875af1925050503d80600081146107e0576040519150601f19603f3d011682016040523d82523d6000602084013e6107e5565b606091505b5050905080610829576040517f08c379a000000000000000000000000000000000000000000000000000000000815260040161082090612159565b60405180910390fd5b827fbb04bea84885a72e3891993318adefb442812fa459948e555c4e09692e352e6060405160405180910390a2505050565b60008160405160200161086e91906121b5565b6040516020818303038152906040528051906020012060008460405161089491906121b5565b90815260200160405180910390206003016040516020016108b591906122c4565b6040516020818303038152906040528051906020012014905092915050565b600080826040516108e591906121b5565b908152602001604051809103902090508060050160009054906101000a900460ff16610946576040517f08c379a000000000000000000000000000000000000000000000000000000000815260040161093d90612327565b60405180910390fd5b8060050160019054906101000a900460ff16610997576040517f08c379a000000000000000000000000000000000000000000000000000000000815260040161098e90612393565b60405180910390fd5b8060000160009054906101000a900473ffffffffffffffffffffffffffffffffffffffff1673ffffffffffffffffffffffffffffffffffffffff163373ffffffffffffffffffffffffffffffffffffffff1614610a29576040517f08c379a0000000000000000000000000000000000000000000000000000000008152600401610a20906123ff565b60405180910390fd5b60008160050160016101000a81548160ff0219169083151502179055503373ffffffffffffffffffffffffffffffffffffffff167fb34c3140060c2bd3cd070cf6c0066841fa45fa33349e6f865475e3910f3ca3ba83604051610a8c919061241f565b60405180910390a25050565b60008211610adb576040517f08c379a0000000000000000000000000000000000000000000000000000000008152600401610ad29061248d565b60405180910390fd5b6040518061010001604052803373ffffffffffffffffffffffffffffffffffffffff16815260200182815260200185815260200184815260200183815260200160011515815260200160011515815260200142815250600085604051610b4191906121b5565b908152602001604051809103902060008201518160000160006101000a81548173ffffffffffffffffffffffffffffffffffffffff021916908373ffffffffffffffffffffffffffffffffffffffff1602179055506020820151816001019081610bab9190612644565b506040820151816002019081610bc19190612644565b506060820151816003019081610bd79190612644565b506080820151816004015560a08201518160050160006101000a81548160ff02191690831515021790555060c08201518160050160016101000a81548160ff02191690831515021790555060e082015181600601559050503373ffffffffffffffffffffffffffffffffffffffff167f3d77a00afd00312d591529601a1c67b51e84bd316ffbacb3b718a560b10d4aca8286868642604051610c7d959493929190612716565b60405180910390a250505050565b600060016000838152602001908152602001600020905060006003811115610cb657610cb5611d2a565b5b8160060160009054906101000a900460ff166003811115610cda57610cd9611d2a565b5b14610d1a576040517f08c379a0000000000000000000000000000000000000000000000000000000008152600401610d1190611e94565b60405180910390fd5b8060030160009054906101000a900473ffffffffffffffffffffffffffffffffffffffff1673ffffffffffffffffffffffffffffffffffffffff163373ffffffffffffffffffffffffffffffffffffffff1614610dac576040517f08c379a0000000000000000000000000000000000000000000000000000000008152600401610da3906127ca565b60405180910390fd5b60028160060160006101000a81548160ff02191690836003811115610dd457610dd3611d2a565b5b021790555060008160020160009054906101000a900473ffffffffffffffffffffffffffffffffffffffff1673ffffffffffffffffffffffffffffffffffffffff168260050154604051610e2790612020565b60006040518083038185875af1925050503d8060008114610e64576040519150601f19603f3d011682016040523d82523d6000602084013e610e69565b606091505b5050905080610ead576040517f08c379a0000000000000000000000000000000000000000000000000000000008152600401610ea490612081565b60405180910390fd5b827f6c9fce95823a2b23b3688377253801890402fc7ec3a0c59fb58f807e86cfa0e760405160405180910390a2505050565b60008082604051610ef091906121b5565b908152602001604051809103902060050160009054906101000a900460ff16610f4e576040517f08c379a0000000000000000000000000000000000000000000000000000000008152600401610f4590612836565b60405180910390fd5b600082604051610f5e91906121b5565b9081526020016040518091039020600401549050919050565b60006060806060600080600080600089604051610f9491906121b5565b9081526020016040518091039020604051806101000160405290816000820160009054906101000a900473ffffffffffffffffffffffffffffffffffffffff1673ffffffffffffffffffffffffffffffffffffffff1673ffffffffffffffffffffffffffffffffffffffff168152602001600182018054611014906121fb565b80601f0160208091040260200160405190810160405280929190818152602001828054611040906121fb565b801561108d5780601f106110625761010080835404028352916020019161108d565b820191906000526020600020905b81548152906001019060200180831161107057829003601f168201915b505050505081526020016002820180546110a6906121fb565b80601f01602080910402602001604051908101604052809291908181526020018280546110d2906121fb565b801561111f5780601f106110f45761010080835404028352916020019161111f565b820191906000526020600020905b81548152906001019060200180831161110257829003601f168201915b50505050508152602001600382018054611138906121fb565b80601f0160208091040260200160405190810160405280929190818152602001828054611164906121fb565b80156111b15780601f10611186576101008083540402835291602001916111b1565b820191906000526020600020905b81548152906001019060200180831161119457829003601f168201915b50505050508152602001600482015481526020016005820160009054906101000a900460ff161515151581526020016005820160019054906101000a900460ff161515151581526020016006820154815250509050806000015181602001518260400151836060015184608001518560c001518660e00151975097509750975097509750975050919395979092949650565b6201518081565b6001602052806000526040600020600091509050806000015490806001018054611273906121fb565b80601f016020809104026020016040519081016040528092919081815260200182805461129f906121fb565b80156112ec5780601f106112c1576101008083540402835291602001916112ec565b820191906000526020600020905b8154815290600101906020018083116112cf57829003601f168201915b5050505050908060020160009054906101000a900473ffffffffffffffffffffffffffffffffffffffff16908060030160009054906101000a900473ffffffffffffffffffffffffffffffffffffffff169080600401805461134d906121fb565b80601f0160208091040260200160405190810160405280929190818152602001828054611379906121fb565b80156113c65780601f1061139b576101008083540402835291602001916113c6565b820191906000526020600020905b8154815290600101906020018083116113a957829003601f168201915b5050505050908060050154908060060160009054906101000a900460ff16908060070154905088565b60008060008460405161140291906121b5565b908152602001604051809103902090508060050160009054906101000a900460ff16611463576040517f08c379a000000000000000000000000000000000000000000000000000000000815260040161145a90612836565b60405180910390fd5b806004015434146114a9576040517f08c379a00000000000000000000000000000000000000000000000000000000081526004016114a0906128a2565b60405180910390fd5b8060050160019054906101000a900460ff166114fa576040517f08c379a00000000000000000000000000000000000000000000000000000000081526004016114f19061290e565b60405180910390fd5b8060000160009054906101000a900473ffffffffffffffffffffffffffffffffffffffff1673ffffffffffffffffffffffffffffffffffffffff163373ffffffffffffffffffffffffffffffffffffffff160361158c576040517f08c379a00000000000000000000000000000000000000000000000000000000081526004016115839061297a565b60405180910390fd5b6002600081548092919061159f9061299a565b919050555060405180610100016040528060025481526020018581526020013373ffffffffffffffffffffffffffffffffffffffff1681526020018260000160009054906101000a900473ffffffffffffffffffffffffffffffffffffffff1673ffffffffffffffffffffffffffffffffffffffff1681526020018481526020013481526020016000600381111561163a57611639611d2a565b5b8152602001428152506001600060025481526020019081526020016000206000820151816000015560208201518160010190816116779190612644565b5060408201518160020160006101000a81548173ffffffffffffffffffffffffffffffffffffffff021916908373ffffffffffffffffffffffffffffffffffffffff16021790555060608201518160030160006101000a81548173ffffffffffffffffffffffffffffffffffffffff021916908373ffffffffffffffffffffffffffffffffffffffff160217905550608082015181600401908161171b9190612644565b5060a0820151816005015560c08201518160060160006101000a81548160ff0219169083600381111561175157611750611d2a565b5b021790555060e082015181600701559050508060000160009054906101000a900473ffffffffffffffffffffffffffffffffffffffff1673ffffffffffffffffffffffffffffffffffffffff163373ffffffffffffffffffffffffffffffffffffffff166002547f5eb0f20896a7e97d43abcdd5cdd45167b55d62ad974b7d2fd311b0e7de87e42c8787346040516117eb939291906129e2565b60405180910390a460025491505092915050565b60006001600083815260200190815260200160002060060160009054906101000a900460ff169050919050565b6000819050919050565b61183f8161182c565b82525050565b600060208201905061185a6000830184611836565b92915050565b6000604051905090565b600080fd5b600080fd5b61187d8161182c565b811461188857600080fd5b50565b60008135905061189a81611874565b92915050565b6000602082840312156118b6576118b561186a565b5b60006118c48482850161188b565b91505092915050565b600080fd5b600080fd5b6000601f19601f8301169050919050565b7f4e487b7100000000000000000000000000000000000000000000000000000000600052604160045260246000fd5b611920826118d7565b810181811067ffffffffffffffff8211171561193f5761193e6118e8565b5b80604052505050565b6000611952611860565b905061195e8282611917565b919050565b600067ffffffffffffffff82111561197e5761197d6118e8565b5b611987826118d7565b9050602081019050919050565b82818337600083830152505050565b60006119b66119b184611963565b611948565b9050828152602081018484840111156119d2576119d16118d2565b5b6119dd848285611994565b509392505050565b600082601f8301126119fa576119f96118cd565b5b8135611a0a8482602086016119a3565b91505092915050565b60008060408385031215611a2a57611a2961186a565b5b600083013567ffffffffffffffff811115611a4857611a4761186f565b5b611a54858286016119e5565b925050602083013567ffffffffffffffff811115611a7557611a7461186f565b5b611a81858286016119e5565b9150509250929050565b60008115159050919050565b611aa081611a8b565b82525050565b6000602082019050611abb6000830184611a97565b92915050565b600060208284031215611ad757611ad661186a565b5b600082013567ffffffffffffffff811115611af557611af461186f565b5b611b01848285016119e5565b91505092915050565b60008060008060808587031215611b2457611b2361186a565b5b600085013567ffffffffffffffff811115611b4257611b4161186f565b5b611b4e878288016119e5565b945050602085013567ffffffffffffffff811115611b6f57611b6e61186f565b5b611b7b878288016119e5565b9350506040611b8c8782880161188b565b925050606085013567ffffffffffffffff811115611bad57611bac61186f565b5b611bb9878288016119e5565b91505092959194509250565b600073ffffffffffffffffffffffffffffffffffffffff82169050919050565b6000611bf082611bc5565b9050919050565b611c0081611be5565b82525050565b600081519050919050565b600082825260208201905092915050565b60005b83811015611c40578082015181840152602081019050611c25565b60008484015250505050565b6000611c5782611c06565b611c618185611c11565b9350611c71818560208601611c22565b611c7a816118d7565b840191505092915050565b600060e082019050611c9a600083018a611bf7565b8181036020830152611cac8189611c4c565b90508181036040830152611cc08188611c4c565b90508181036060830152611cd48187611c4c565b9050611ce36080830186611836565b611cf060a0830185611a97565b611cfd60c0830184611836565b98975050505050505050565b6000611d1482611bc5565b9050919050565b611d2481611d09565b82525050565b7f4e487b7100000000000000000000000000000000000000000000000000000000600052602160045260246000fd5b60048110611d6a57611d69611d2a565b5b50565b6000819050611d7b82611d59565b919050565b6000611d8b82611d6d565b9050919050565b611d9b81611d80565b82525050565b600061010082019050611db7600083018b611836565b8181036020830152611dc9818a611c4c565b9050611dd86040830189611d1b565b611de56060830188611d1b565b8181036080830152611df78187611c4c565b9050611e0660a0830186611836565b611e1360c0830185611d92565b611e2060e0830184611836565b9998505050505050505050565b6000602082019050611e426000830184611d92565b92915050565b7f53616c65206973206e6f742070656e64696e6700000000000000000000000000600082015250565b6000611e7e601383611c11565b9150611e8982611e48565b602082019050919050565b60006020820190508181036000830152611ead81611e71565b9050919050565b7f4f6e6c792062757965722063616e207265717565737420726566756e64000000600082015250565b6000611eea601d83611c11565b9150611ef582611eb4565b602082019050919050565b60006020820190508181036000830152611f1981611edd565b9050919050565b7f4e487b7100000000000000000000000000000000000000000000000000000000600052601160045260246000fd5b6000611f5a8261182c565b9150611f658361182c565b9250828201905080821115611f7d57611f7c611f20565b5b92915050565b7f526566756e642074696d656f7574206e6f742072656163686564000000000000600082015250565b6000611fb9601a83611c11565b9150611fc482611f83565b602082019050919050565b60006020820190508181036000830152611fe881611fac565b9050919050565b600081905092915050565b50565b600061200a600083611fef565b915061201582611ffa565b600082019050919050565b600061202b82611ffd565b9150819050919050565b7f526566756e64206661696c656400000000000000000000000000000000000000600082015250565b600061206b600d83611c11565b915061207682612035565b602082019050919050565b6000602082019050818103600083015261209a8161205e565b9050919050565b7f4f6e6c792073656c6c65722063616e20617070726f7665000000000000000000600082015250565b60006120d7601783611c11565b91506120e2826120a1565b602082019050919050565b60006020820190508181036000830152612106816120ca565b9050919050565b7f5061796d656e74207472616e73666572206661696c6564000000000000000000600082015250565b6000612143601783611c11565b915061214e8261210d565b602082019050919050565b6000602082019050818103600083015261217281612136565b9050919050565b600081905092915050565b600061218f82611c06565b6121998185612179565b93506121a9818560208601611c22565b80840191505092915050565b60006121c18284612184565b915081905092915050565b7f4e487b7100000000000000000000000000000000000000000000000000000000600052602260045260246000fd5b6000600282049050600182168061221357607f821691505b602082108103612226576122256121cc565b5b50919050565b60008190508160005260206000209050919050565b6000815461224e816121fb565b6122588186612179565b945060018216600081146122735760018114612288576122bb565b60ff19831686528115158202860193506122bb565b6122918561222c565b60005b838110156122b357815481890152600182019150602081019050612294565b838801955050505b50505092915050565b60006122d08284612241565b915081905092915050565b7f4c697374696e6720646f6573206e6f7420657869737400000000000000000000600082015250565b6000612311601683611c11565b915061231c826122db565b602082019050919050565b6000602082019050818103600083015261234081612304565b9050919050565b7f4c697374696e6720616c72656164792064656c65746564000000000000000000600082015250565b600061237d601783611c11565b915061238882612347565b602082019050919050565b600060208201905081810360008301526123ac81612370565b9050919050565b7f4f6e6c79206c69737465722063616e2064656c657465206c697374696e670000600082015250565b60006123e9601e83611c11565b91506123f4826123b3565b602082019050919050565b60006020820190508181036000830152612418816123dc565b9050919050565b600060208201905081810360008301526124398184611c4c565b905092915050565b7f5072696365206d7573742062652067726561746572207468616e207a65726f00600082015250565b6000612477601f83611c11565b915061248282612441565b602082019050919050565b600060208201905081810360008301526124a68161246a565b9050919050565b60006020601f8301049050919050565b600082821b905092915050565b6000600883026124fa7fffffffffffffffffffffffffffffffffffffffffffffffffffffffffffffffff826124bd565b61250486836124bd565b95508019841693508086168417925050509392505050565b6000819050919050565b600061254161253c6125378461182c565b61251c565b61182c565b9050919050565b6000819050919050565b61255b83612526565b61256f61256782612548565b8484546124ca565b825550505050565b600090565b612584612577565b61258f818484612552565b505050565b5b818110156125b3576125a860008261257c565b600181019050612595565b5050565b601f8211156125f8576125c98161222c565b6125d2846124ad565b810160208510156125e1578190505b6125f56125ed856124ad565b830182612594565b50505b505050565b600082821c905092915050565b600061261b600019846008026125fd565b1980831691505092915050565b6000612634838361260a565b9150826002028217905092915050565b61264d82611c06565b67ffffffffffffffff811115612666576126656118e8565b5b61267082546121fb565b61267b8282856125b7565b600060209050601f8311600181146126ae576000841561269c578287015190505b6126a68582612628565b86555061270e565b601f1984166126bc8661222c565b60005b828110156126e4578489015182556001820191506020850194506020810190506126bf565b8683101561270157848901516126fd601f89168261260a565b8355505b6001600288020188555050505b505050505050565b600060a08201905081810360008301526127308188611c4c565b905081810360208301526127448187611c4c565b905081810360408301526127588186611c4c565b90506127676060830185611836565b6127746080830184611836565b9695505050505050565b7f4f6e6c792073656c6c65722063616e2072656a65637400000000000000000000600082015250565b60006127b4601683611c11565b91506127bf8261277e565b602082019050919050565b600060208201905081810360008301526127e3816127a7565b9050919050565b7f46696c65206e6f7420666f756e64000000000000000000000000000000000000600082015250565b6000612820600e83611c11565b915061282b826127ea565b602082019050919050565b6000602082019050818103600083015261284f81612813565b9050919050565b7f496e636f72726563742070726963650000000000000000000000000000000000600082015250565b600061288c600f83611c11565b915061289782612856565b602082019050919050565b600060208201905081810360008301526128bb8161287f565b9050919050565b7f4c697374696e67206973206e6f206c6f6e676572206163746976650000000000600082015250565b60006128f8601b83611c11565b9150612903826128c2565b602082019050919050565b60006020820190508181036000830152612927816128eb565b9050919050565b7f53656c6c65722063616e6e6f7420627579206f776e206c697374696e67000000600082015250565b6000612964601d83611c11565b915061296f8261292e565b602082019050919050565b6000602082019050818103600083015261299381612957565b9050919050565b60006129a58261182c565b91507fffffffffffffffffffffffffffffffffffffffffffffffffffffffffffffffff82036129d7576129d6611f20565b5b600182019050919050565b600060608201905081810360008301526129fc8186611c4c565b90508181036020830152612a108185611c4c565b9050612a1f6040830184611836565b94935050505056fea264697066735822122039ce1cd1f617ffedb2464eb958a5a7a9c265ca11bcc25a14b6ac38c79ac3825e64736f6c634300081c0033",
  "linkReferences": {},
  "deployedLinkReferences": {}
}