{
  "_format": "hh-sol-artifact-1",
  "contractName": "MarketplaceTwo",
  "sourceName": "contracts/MatketplaceTwo.sol",
  "abi": [
    {
      "anonymous": false,
      "inputs": [
        {
          "indexed": true,
          "internalType": "address",
          "name": "listerWallet",
          "type": "address"
        },
        {
          "indexed": false,
          "internalType": "string",
          "name": "webId",
          "type": "string"
        },
        {
          "indexed": false,
          "internalType": "string",
          "name": "fileUrl",
          "type": "string"
        },
        {
          "indexed": false,
          "internalType": "string",
          "name": "fileHash",
          "type": "string"
        },
        {
          "indexed": false,
          "internalType": "uint256",
          "name": "price",
          "type": "uint256"
        },
        {
          "indexed": false,
          "internalType": "uint256",
          "name": "listedAt",
          "type": "uint256"
        }
      ],
      "name": "FileStored",
      "type": "event"
    },
    {
      "anonymous": false,
      "inputs": [
        {
          "indexed": false,
          "internalType": "string",
          "name": "fileUrl",
          "type": "string"
        },
        {
          "indexed": true,
          "internalType": "address",
          "name": "listerWallet",
          "type": "address"
        }
      ],
      "name": "ListingDeleted",
      "type": "event"
    },
    {
      "anonymous": false,
      "inputs": [
        {
          "indexed": true,
          "internalType": "uint256",
          "name": "saleId",
          "type": "uint256"
        }
      ],
      "name": "SaleApproved",
      "type": "event"
    },
    {
      "anonymous": false,
      "inputs": [
        {
          "indexed": true,
          "internalType": "uint256",
          "name": "saleId",
          "type": "uint256"
        }
      ],
      "name": "SaleRefunded",
      "type": "event"
    },
    {
      "anonymous": false,
      "inputs": [
        {
          "indexed": true,
          "internalType": "uint256",
          "name": "saleId",
          "type": "uint256"
        }
      ],
      "name": "SaleRejected",
      "type": "event"
    },
    {
      "anonymous": false,
      "inputs": [
        {
          "indexed": true,
          "internalType": "uint256",
          "name": "saleId",
          "type": "uint256"
        },
        {
          "indexed": false,
          "internalType": "string",
          "name": "fileUrl",
          "type": "string"
        },
        {
          "indexed": true,
          "internalType": "address",
          "name": "buyerWallet",
          "type": "address"
        },
        {
          "indexed": true,
          "internalType": "address",
          "name": "sellerWallet",
          "type": "address"
        },
        {
          "indexed": false,
          "internalType": "string",
          "name": "buyerWebId",
          "type": "string"
        },
        {
          "indexed": false,
          "internalType": "uint256",
          "name": "amount",
          "type": "uint256"
        }
      ],
      "name": "SaleRequested",
      "type": "event"
    },
    {
      "inputs": [],
      "name": "REFUND_TIMEOUT",
      "outputs": [
        {
          "internalType": "uint256",
          "name": "",
          "type": "uint256"
        }
      ],
      "stateMutability": "view",
      "type": "function"
    },
    {
      "inputs": [
        {
          "internalType": "uint256",
          "name": "saleId",
          "type": "uint256"
        }
      ],
      "name": "approveSale",
      "outputs": [],
      "stateMutability": "nonpayable",
      "type": "function"
    },
    {
      "inputs": [
        {
          "internalType": "string",
          "name": "fileUrl",
          "type": "string"
        }
      ],
      "name": "deleteListing",
      "outputs": [],
      "stateMutability": "nonpayable",
      "type": "function"
    },
    {
      "inputs": [
        {
          "internalType": "string",
          "name": "fileUrl",
          "type": "string"
        }
      ],
      "name": "getFileData",
      "outputs": [
        {
          "internalType": "address",
          "name": "",
          "type": "address"
        },
        {
          "internalType": "string",
          "name": "",
          "type": "string"
        },
        {
          "internalType": "string",
          "name": "",
          "type": "string"
        },
        {
          "internalType": "string",
          "name": "",
          "type": "string"
        },
        {
          "internalType": "uint256",
          "name": "",
          "type": "uint256"
        }
      ],
      "stateMutability": "view",
      "type": "function"
    },
    {
      "inputs": [
        {
          "internalType": "string",
          "name": "fileUrl",
          "type": "string"
        }
      ],
      "name": "getFilePrice",
      "outputs": [
        {
          "internalType": "uint256",
          "name": "",
          "type": "uint256"
        }
      ],
      "stateMutability": "view",
      "type": "function"
    },
    {
      "inputs": [
        {
          "internalType": "uint256",
          "name": "saleId",
          "type": "uint256"
        }
      ],
      "name": "getSaleStatus",
      "outputs": [
        {
          "internalType": "enum MarketplaceTwo.SaleStatus",
          "name": "",
          "type": "uint8"
        }
      ],
      "stateMutability": "view",
      "type": "function"
    },
    {
      "inputs": [
        {
          "internalType": "string",
          "name": "fileUrl",
          "type": "string"
        },
        {
          "internalType": "string",
          "name": "buyerWebId",
          "type": "string"
        }
      ],
      "name": "purchaseFile",
      "outputs": [
        {
          "internalType": "uint256",
          "name": "",
          "type": "uint256"
        }
      ],
      "stateMutability": "payable",
      "type": "function"
    },
    {
      "inputs": [
        {
          "internalType": "uint256",
          "name": "saleId",
          "type": "uint256"
        }
      ],
      "name": "refundAfterTimeout",
      "outputs": [],
      "stateMutability": "nonpayable",
      "type": "function"
    },
    {
      "inputs": [
        {
          "internalType": "uint256",
          "name": "saleId",
          "type": "uint256"
        }
      ],
      "name": "rejectSale",
      "outputs": [],
      "stateMutability": "nonpayable",
      "type": "function"
    },
    {
      "inputs": [],
      "name": "saleCounter",
      "outputs": [
        {
          "internalType": "uint256",
          "name": "",
          "type": "uint256"
        }
      ],
      "stateMutability": "view",
      "type": "function"
    },
    {
      "inputs": [
        {
          "internalType": "uint256",
          "name": "",
          "type": "uint256"
        }
      ],
      "name": "sales",
      "outputs": [
        {
          "internalType": "uint256",
          "name": "saleId",
          "type": "uint256"
        },
        {
          "internalType": "string",
          "name": "fileUrl",
          "type": "string"
        },
        {
          "internalType": "address payable",
          "name": "buyerWallet",
          "type": "address"
        },
        {
          "internalType": "address payable",
          "name": "sellerWallet",
          "type": "address"
        },
        {
          "internalType": "string",
          "name": "buyerWebId",
          "type": "string"
        },
        {
          "internalType": "uint256",
          "name": "amount",
          "type": "uint256"
        },
        {
          "internalType": "enum MarketplaceTwo.SaleStatus",
          "name": "status",
          "type": "uint8"
        },
        {
          "internalType": "uint256",
          "name": "createdAt",
          "type": "uint256"
        }
      ],
      "stateMutability": "view",
      "type": "function"
    },
    {
      "inputs": [
        {
          "internalType": "string",
          "name": "fileUrl",
          "type": "string"
        },
        {
          "internalType": "string",
          "name": "fileHash",
          "type": "string"
        },
        {
          "internalType": "uint256",
          "name": "price",
          "type": "uint256"
        },
        {
          "internalType": "string",
          "name": "webId",
          "type": "string"
        }
      ],
      "name": "storeFileHashWithPrice",
      "outputs": [],
      "stateMutability": "nonpayable",
      "type": "function"
    },
    {
      "inputs": [
        {
          "internalType": "string",
          "name": "fileUrl",
          "type": "string"
        },
        {
          "internalType": "string",
          "name": "hashToCheck",
          "type": "string"
        }
      ],
      "name": "verifyFileHash",
      "outputs": [
        {
          "internalType": "bool",
          "name": "",
          "type": "bool"
        }
      ],
      "stateMutability": "view",
      "type": "function"
    }
  ],
  "bytecode": "0x6080604052348015600f57600080fd5b50612a2c8061001f6000396000f3fe6080604052600436106100c25760003560e01c80636cb326bf1161007f5780637d57900a116100595780637d57900a1461027a578063b5f522f7146102a5578063cd72ada8146102e9578063d254d2c614610319576100c2565b80636cb326bf146101d35780637609b8e4146101fc57806378998bbf14610239576100c2565b80630387b0a2146100c75780630c4b10d4146100f257806314a72feb1461011b5780631f4e6e9e14610144578063295a8b84146101815780634ad14858146101aa575b600080fd5b3480156100d357600080fd5b506100dc610356565b6040516100e99190611830565b60405180910390f35b3480156100fe57600080fd5b506101196004803603810190610114919061188b565b61035c565b005b34801561012757600080fd5b50610142600480360381019061013d919061188b565b610605565b005b34801561015057600080fd5b5061016b600480360381019061016691906119fe565b610859565b6040516101789190611a91565b60405180910390f35b34801561018d57600080fd5b506101a860048036038101906101a39190611aac565b6108d2565b005b3480156101b657600080fd5b506101d160048036038101906101cc9190611af5565b610a96565b005b3480156101df57600080fd5b506101fa60048036038101906101f5919061188b565b610c89565b005b34801561020857600080fd5b50610223600480360381019061021e9190611aac565b610edd565b6040516102309190611830565b60405180910390f35b34801561024557600080fd5b50610260600480360381019061025b9190611aac565b610f75565b604051610271959493929190611c70565b60405180910390f35b34801561028657600080fd5b5061028f61122e565b60405161029c9190611830565b60405180910390f35b3480156102b157600080fd5b506102cc60048036038101906102c7919061188b565b611235565b6040516102e0989796959493929190611d70565b60405180910390f35b61030360048036038101906102fe91906119fe565b6113da565b6040516103109190611830565b60405180910390f35b34801561032557600080fd5b50610340600480360381019061033b919061188b565b6117ea565b60405161034d9190611dfc565b60405180910390f35b60025481565b60006001600083815260200190815260200160002090506000600381111561038757610386611cf9565b5b8160060160009054906101000a900460ff1660038111156103ab576103aa611cf9565b5b146103eb576040517f08c379a00000000000000000000000000000000000000000000000000000000081526004016103e290611e63565b60405180910390fd5b8060020160009054906101000a900473ffffffffffffffffffffffffffffffffffffffff1673ffffffffffffffffffffffffffffffffffffffff163373ffffffffffffffffffffffffffffffffffffffff161461047d576040517f08c379a000000000000000000000000000000000000000000000000000000000815260040161047490611ecf565b60405180910390fd5b6201518081600701546104909190611f1e565b4210156104d2576040517f08c379a00000000000000000000000000000000000000000000000000000000081526004016104c990611f9e565b60405180910390fd5b60038160060160006101000a81548160ff021916908360038111156104fa576104f9611cf9565b5b021790555060008160020160009054906101000a900473ffffffffffffffffffffffffffffffffffffffff1673ffffffffffffffffffffffffffffffffffffffff16826005015460405161054d90611fef565b60006040518083038185875af1925050503d806000811461058a576040519150601f19603f3d011682016040523d82523d6000602084013e61058f565b606091505b50509050806105d3576040517f08c379a00000000000000000000000000000000000000000000000000000000081526004016105ca90612050565b60405180910390fd5b827f642fdc8ecdbde141c448accb7e6f08417ede963dc9bafa755d8fef730ea9a46660405160405180910390a2505050565b6000600160008381526020019081526020016000209050600060038111156106305761062f611cf9565b5b8160060160009054906101000a900460ff16600381111561065457610653611cf9565b5b14610694576040517f08c379a000000000000000000000000000000000000000000000000000000000815260040161068b90611e63565b60405180910390fd5b8060030160009054906101000a900473ffffffffffffffffffffffffffffffffffffffff1673ffffffffffffffffffffffffffffffffffffffff163373ffffffffffffffffffffffffffffffffffffffff1614610726576040517f08c379a000000000000000000000000000000000000000000000000000000000815260040161071d906120bc565b60405180910390fd5b60018160060160006101000a81548160ff0219169083600381111561074e5761074d611cf9565b5b021790555060008160030160009054906101000a900473ffffffffffffffffffffffffffffffffffffffff1673ffffffffffffffffffffffffffffffffffffffff1682600501546040516107a190611fef565b60006040518083038185875af1925050503d80600081146107de576040519150601f19603f3d011682016040523d82523d6000602084013e6107e3565b606091505b5050905080610827576040517f08c379a000000000000000000000000000000000000000000000000000000000815260040161081e90612128565b60405180910390fd5b827fbb04bea84885a72e3891993318adefb442812fa459948e555c4e09692e352e6060405160405180910390a2505050565b60008160405160200161086c9190612184565b604051602081830303815290604052805190602001206000846040516108929190612184565b90815260200160405180910390206003016040516020016108b39190612293565b6040516020818303038152906040528051906020012014905092915050565b600080826040516108e39190612184565b908152602001604051809103902090508060050160009054906101000a900460ff16610944576040517f08c379a000000000000000000000000000000000000000000000000000000000815260040161093b906122f6565b60405180910390fd5b8060050160019054906101000a900460ff16610995576040517f08c379a000000000000000000000000000000000000000000000000000000000815260040161098c90612362565b60405180910390fd5b8060000160009054906101000a900473ffffffffffffffffffffffffffffffffffffffff1673ffffffffffffffffffffffffffffffffffffffff163373ffffffffffffffffffffffffffffffffffffffff1614610a27576040517f08c379a0000000000000000000000000000000000000000000000000000000008152600401610a1e906123ce565b60405180910390fd5b60008160050160016101000a81548160ff0219169083151502179055503373ffffffffffffffffffffffffffffffffffffffff167fb34c3140060c2bd3cd070cf6c0066841fa45fa33349e6f865475e3910f3ca3ba83604051610a8a91906123ee565b60405180910390a25050565b60008211610ad9576040517f08c379a0000000000000000000000000000000000000000000000000000000008152600401610ad09061245c565b60405180910390fd5b6040518061010001604052803373ffffffffffffffffffffffffffffffffffffffff16815260200182815260200185815260200184815260200183815260200160011515815260200160011515815260200142815250600085604051610b3f9190612184565b908152602001604051809103902060008201518160000160006101000a81548173ffffffffffffffffffffffffffffffffffffffff021916908373ffffffffffffffffffffffffffffffffffffffff1602179055506020820151816001019081610ba99190612613565b506040820151816002019081610bbf9190612613565b506060820151816003019081610bd59190612613565b506080820151816004015560a08201518160050160006101000a81548160ff02191690831515021790555060c08201518160050160016101000a81548160ff02191690831515021790555060e082015181600601559050503373ffffffffffffffffffffffffffffffffffffffff167f3d77a00afd00312d591529601a1c67b51e84bd316ffbacb3b718a560b10d4aca8286868642604051610c7b9594939291906126e5565b60405180910390a250505050565b600060016000838152602001908152602001600020905060006003811115610cb457610cb3611cf9565b5b8160060160009054906101000a900460ff166003811115610cd857610cd7611cf9565b5b14610d18576040517f08c379a0000000000000000000000000000000000000000000000000000000008152600401610d0f90611e63565b60405180910390fd5b8060030160009054906101000a900473ffffffffffffffffffffffffffffffffffffffff1673ffffffffffffffffffffffffffffffffffffffff163373ffffffffffffffffffffffffffffffffffffffff1614610daa576040517f08c379a0000000000000000000000000000000000000000000000000000000008152600401610da190612799565b60405180910390fd5b60028160060160006101000a81548160ff02191690836003811115610dd257610dd1611cf9565b5b021790555060008160020160009054906101000a900473ffffffffffffffffffffffffffffffffffffffff1673ffffffffffffffffffffffffffffffffffffffff168260050154604051610e2590611fef565b60006040518083038185875af1925050503d8060008114610e62576040519150601f19603f3d011682016040523d82523d6000602084013e610e67565b606091505b5050905080610eab576040517f08c379a0000000000000000000000000000000000000000000000000000000008152600401610ea290612050565b60405180910390fd5b827f6c9fce95823a2b23b3688377253801890402fc7ec3a0c59fb58f807e86cfa0e760405160405180910390a2505050565b60008082604051610eee9190612184565b908152602001604051809103902060050160009054906101000a900460ff16610f4c576040517f08c379a0000000000000000000000000000000000000000000000000000000008152600401610f4390612805565b60405180910390fd5b600082604051610f5c9190612184565b9081526020016040518091039020600401549050919050565b60006060806060600080600087604051610f8f9190612184565b9081526020016040518091039020604051806101000160405290816000820160009054906101000a900473ffffffffffffffffffffffffffffffffffffffff1673ffffffffffffffffffffffffffffffffffffffff1673ffffffffffffffffffffffffffffffffffffffff16815260200160018201805461100f906121ca565b80601f016020809104026020016040519081016040528092919081815260200182805461103b906121ca565b80156110885780601f1061105d57610100808354040283529160200191611088565b820191906000526020600020905b81548152906001019060200180831161106b57829003601f168201915b505050505081526020016002820180546110a1906121ca565b80601f01602080910402602001604051908101604052809291908181526020018280546110cd906121ca565b801561111a5780601f106110ef5761010080835404028352916020019161111a565b820191906000526020600020905b8154815290600101906020018083116110fd57829003601f168201915b50505050508152602001600382018054611133906121ca565b80601f016020809104026020016040519081016040528092919081815260200182805461115f906121ca565b80156111ac5780601f10611181576101008083540402835291602001916111ac565b820191906000526020600020905b81548152906001019060200180831161118f57829003601f168201915b50505050508152602001600482015481526020016005820160009054906101000a900460ff161515151581526020016005820160019054906101000a900460ff16151515158152602001600682015481525050905080600001518160200151826040015183606001518460800151955095509550955095505091939590929450565b6201518081565b600160205280600052604060002060009150905080600001549080600101805461125e906121ca565b80601f016020809104026020016040519081016040528092919081815260200182805461128a906121ca565b80156112d75780601f106112ac576101008083540402835291602001916112d7565b820191906000526020600020905b8154815290600101906020018083116112ba57829003601f168201915b5050505050908060020160009054906101000a900473ffffffffffffffffffffffffffffffffffffffff16908060030160009054906101000a900473ffffffffffffffffffffffffffffffffffffffff1690806004018054611338906121ca565b80601f0160208091040260200160405190810160405280929190818152602001828054611364906121ca565b80156113b15780601f10611386576101008083540402835291602001916113b1565b820191906000526020600020905b81548152906001019060200180831161139457829003601f168201915b5050505050908060050154908060060160009054906101000a900460ff16908060070154905088565b6000806000846040516113ed9190612184565b908152602001604051809103902090508060050160009054906101000a900460ff1661144e576040517f08c379a000000000000000000000000000000000000000000000000000000000815260040161144590612805565b60405180910390fd5b80600401543414611494576040517f08c379a000000000000000000000000000000000000000000000000000000000815260040161148b90612871565b60405180910390fd5b8060050160019054906101000a900460ff166114e5576040517f08c379a00000000000000000000000000000000000000000000000000000000081526004016114dc906128dd565b60405180910390fd5b8060000160009054906101000a900473ffffffffffffffffffffffffffffffffffffffff1673ffffffffffffffffffffffffffffffffffffffff163373ffffffffffffffffffffffffffffffffffffffff1603611577576040517f08c379a000000000000000000000000000000000000000000000000000000000815260040161156e90612949565b60405180910390fd5b6002600081548092919061158a90612969565b919050555060405180610100016040528060025481526020018581526020013373ffffffffffffffffffffffffffffffffffffffff1681526020018260000160009054906101000a900473ffffffffffffffffffffffffffffffffffffffff1673ffffffffffffffffffffffffffffffffffffffff1681526020018481526020013481526020016000600381111561162557611624611cf9565b5b8152602001428152506001600060025481526020019081526020016000206000820151816000015560208201518160010190816116629190612613565b5060408201518160020160006101000a81548173ffffffffffffffffffffffffffffffffffffffff021916908373ffffffffffffffffffffffffffffffffffffffff16021790555060608201518160030160006101000a81548173ffffffffffffffffffffffffffffffffffffffff021916908373ffffffffffffffffffffffffffffffffffffffff16021790555060808201518160040190816117069190612613565b5060a0820151816005015560c08201518160060160006101000a81548160ff0219169083600381111561173c5761173b611cf9565b5b021790555060e082015181600701559050508060000160009054906101000a900473ffffffffffffffffffffffffffffffffffffffff1673ffffffffffffffffffffffffffffffffffffffff163373ffffffffffffffffffffffffffffffffffffffff166002547f5eb0f20896a7e97d43abcdd5cdd45167b55d62ad974b7d2fd311b0e7de87e42c8787346040516117d6939291906129b1565b60405180910390a460025491505092915050565b60006001600083815260200190815260200160002060060160009054906101000a900460ff169050919050565b6000819050919050565b61182a81611817565b82525050565b60006020820190506118456000830184611821565b92915050565b6000604051905090565b600080fd5b600080fd5b61186881611817565b811461187357600080fd5b50565b6000813590506118858161185f565b92915050565b6000602082840312156118a1576118a0611855565b5b60006118af84828501611876565b91505092915050565b600080fd5b600080fd5b6000601f19601f8301169050919050565b7f4e487b7100000000000000000000000000000000000000000000000000000000600052604160045260246000fd5b61190b826118c2565b810181811067ffffffffffffffff8211171561192a576119296118d3565b5b80604052505050565b600061193d61184b565b90506119498282611902565b919050565b600067ffffffffffffffff821115611969576119686118d3565b5b611972826118c2565b9050602081019050919050565b82818337600083830152505050565b60006119a161199c8461194e565b611933565b9050828152602081018484840111156119bd576119bc6118bd565b5b6119c884828561197f565b509392505050565b600082601f8301126119e5576119e46118b8565b5b81356119f584826020860161198e565b91505092915050565b60008060408385031215611a1557611a14611855565b5b600083013567ffffffffffffffff811115611a3357611a3261185a565b5b611a3f858286016119d0565b925050602083013567ffffffffffffffff811115611a6057611a5f61185a565b5b611a6c858286016119d0565b9150509250929050565b60008115159050919050565b611a8b81611a76565b82525050565b6000602082019050611aa66000830184611a82565b92915050565b600060208284031215611ac257611ac1611855565b5b600082013567ffffffffffffffff811115611ae057611adf61185a565b5b611aec848285016119d0565b91505092915050565b60008060008060808587031215611b0f57611b0e611855565b5b600085013567ffffffffffffffff811115611b2d57611b2c61185a565b5b611b39878288016119d0565b945050602085013567ffffffffffffffff811115611b5a57611b5961185a565b5b611b66878288016119d0565b9350506040611b7787828801611876565b925050606085013567ffffffffffffffff811115611b9857611b9761185a565b5b611ba4878288016119d0565b91505092959194509250565b600073ffffffffffffffffffffffffffffffffffffffff82169050919050565b6000611bdb82611bb0565b9050919050565b611beb81611bd0565b82525050565b600081519050919050565b600082825260208201905092915050565b60005b83811015611c2b578082015181840152602081019050611c10565b60008484015250505050565b6000611c4282611bf1565b611c4c8185611bfc565b9350611c5c818560208601611c0d565b611c65816118c2565b840191505092915050565b600060a082019050611c856000830188611be2565b8181036020830152611c978187611c37565b90508181036040830152611cab8186611c37565b90508181036060830152611cbf8185611c37565b9050611cce6080830184611821565b9695505050505050565b6000611ce382611bb0565b9050919050565b611cf381611cd8565b82525050565b7f4e487b7100000000000000000000000000000000000000000000000000000000600052602160045260246000fd5b60048110611d3957611d38611cf9565b5b50565b6000819050611d4a82611d28565b919050565b6000611d5a82611d3c565b9050919050565b611d6a81611d4f565b82525050565b600061010082019050611d86600083018b611821565b8181036020830152611d98818a611c37565b9050611da76040830189611cea565b611db46060830188611cea565b8181036080830152611dc68187611c37565b9050611dd560a0830186611821565b611de260c0830185611d61565b611def60e0830184611821565b9998505050505050505050565b6000602082019050611e116000830184611d61565b92915050565b7f53616c65206973206e6f742070656e64696e6700000000000000000000000000600082015250565b6000611e4d601383611bfc565b9150611e5882611e17565b602082019050919050565b60006020820190508181036000830152611e7c81611e40565b9050919050565b7f4f6e6c792062757965722063616e207265717565737420726566756e64000000600082015250565b6000611eb9601d83611bfc565b9150611ec482611e83565b602082019050919050565b60006020820190508181036000830152611ee881611eac565b9050919050565b7f4e487b7100000000000000000000000000000000000000000000000000000000600052601160045260246000fd5b6000611f2982611817565b9150611f3483611817565b9250828201905080821115611f4c57611f4b611eef565b5b92915050565b7f526566756e642074696d656f7574206e6f742072656163686564000000000000600082015250565b6000611f88601a83611bfc565b9150611f9382611f52565b602082019050919050565b60006020820190508181036000830152611fb781611f7b565b9050919050565b600081905092915050565b50565b6000611fd9600083611fbe565b9150611fe482611fc9565b600082019050919050565b6000611ffa82611fcc565b9150819050919050565b7f526566756e64206661696c656400000000000000000000000000000000000000600082015250565b600061203a600d83611bfc565b915061204582612004565b602082019050919050565b600060208201905081810360008301526120698161202d565b9050919050565b7f4f6e6c792073656c6c65722063616e20617070726f7665000000000000000000600082015250565b60006120a6601783611bfc565b91506120b182612070565b602082019050919050565b600060208201905081810360008301526120d581612099565b9050919050565b7f5061796d656e74207472616e73666572206661696c6564000000000000000000600082015250565b6000612112601783611bfc565b915061211d826120dc565b602082019050919050565b6000602082019050818103600083015261214181612105565b9050919050565b600081905092915050565b600061215e82611bf1565b6121688185612148565b9350612178818560208601611c0d565b80840191505092915050565b60006121908284612153565b915081905092915050565b7f4e487b7100000000000000000000000000000000000000000000000000000000600052602260045260246000fd5b600060028204905060018216806121e257607f821691505b6020821081036121f5576121f461219b565b5b50919050565b60008190508160005260206000209050919050565b6000815461221d816121ca565b6122278186612148565b9450600182166000811461224257600181146122575761228a565b60ff198316865281151582028601935061228a565b612260856121fb565b60005b8381101561228257815481890152600182019150602081019050612263565b838801955050505b50505092915050565b600061229f8284612210565b915081905092915050565b7f4c697374696e6720646f6573206e6f7420657869737400000000000000000000600082015250565b60006122e0601683611bfc565b91506122eb826122aa565b602082019050919050565b6000602082019050818103600083015261230f816122d3565b9050919050565b7f4c697374696e6720616c72656164792064656c65746564000000000000000000600082015250565b600061234c601783611bfc565b915061235782612316565b602082019050919050565b6000602082019050818103600083015261237b8161233f565b9050919050565b7f4f6e6c79206c69737465722063616e2064656c657465206c697374696e670000600082015250565b60006123b8601e83611bfc565b91506123c382612382565b602082019050919050565b600060208201905081810360008301526123e7816123ab565b9050919050565b600060208201905081810360008301526124088184611c37565b905092915050565b7f5072696365206d7573742062652067726561746572207468616e207a65726f00600082015250565b6000612446601f83611bfc565b915061245182612410565b602082019050919050565b6000602082019050818103600083015261247581612439565b9050919050565b60006020601f8301049050919050565b600082821b905092915050565b6000600883026124c97fffffffffffffffffffffffffffffffffffffffffffffffffffffffffffffffff8261248c565b6124d3868361248c565b95508019841693508086168417925050509392505050565b6000819050919050565b600061251061250b61250684611817565b6124eb565b611817565b9050919050565b6000819050919050565b61252a836124f5565b61253e61253682612517565b848454612499565b825550505050565b600090565b612553612546565b61255e818484612521565b505050565b5b818110156125825761257760008261254b565b600181019050612564565b5050565b601f8211156125c757612598816121fb565b6125a18461247c565b810160208510156125b0578190505b6125c46125bc8561247c565b830182612563565b50505b505050565b600082821c905092915050565b60006125ea600019846008026125cc565b1980831691505092915050565b600061260383836125d9565b9150826002028217905092915050565b61261c82611bf1565b67ffffffffffffffff811115612635576126346118d3565b5b61263f82546121ca565b61264a828285612586565b600060209050601f83116001811461267d576000841561266b578287015190505b61267585826125f7565b8655506126dd565b601f19841661268b866121fb565b60005b828110156126b35784890151825560018201915060208501945060208101905061268e565b868310156126d057848901516126cc601f8916826125d9565b8355505b6001600288020188555050505b505050505050565b600060a08201905081810360008301526126ff8188611c37565b905081810360208301526127138187611c37565b905081810360408301526127278186611c37565b90506127366060830185611821565b6127436080830184611821565b9695505050505050565b7f4f6e6c792073656c6c65722063616e2072656a65637400000000000000000000600082015250565b6000612783601683611bfc565b915061278e8261274d565b602082019050919050565b600060208201905081810360008301526127b281612776565b9050919050565b7f46696c65206e6f7420666f756e64000000000000000000000000000000000000600082015250565b60006127ef600e83611bfc565b91506127fa826127b9565b602082019050919050565b6000602082019050818103600083015261281e816127e2565b9050919050565b7f496e636f72726563742070726963650000000000000000000000000000000000600082015250565b600061285b600f83611bfc565b915061286682612825565b602082019050919050565b6000602082019050818103600083015261288a8161284e565b9050919050565b7f4c697374696e67206973206e6f206c6f6e676572206163746976650000000000600082015250565b60006128c7601b83611bfc565b91506128d282612891565b602082019050919050565b600060208201905081810360008301526128f6816128ba565b9050919050565b7f53656c6c65722063616e6e6f7420627579206f776e206c697374696e67000000600082015250565b6000612933601d83611bfc565b915061293e826128fd565b602082019050919050565b6000602082019050818103600083015261296281612926565b9050919050565b600061297482611817565b91507fffffffffffffffffffffffffffffffffffffffffffffffffffffffffffffffff82036129a6576129a5611eef565b5b600182019050919050565b600060608201905081810360008301526129cb8186611c37565b905081810360208301526129df8185611c37565b90506129ee6040830184611821565b94935050505056fea26469706673582212208cfa9842c3dd6b185f3ebeb75e7c078dd91277d9fab07649bc581e52f8d65d0764736f6c634300081c0033",
  "linkReferences": {},
  "deployedLinkReferences": {}
}