{
  "_format": "hh-sol-artifact-1",
  "contractName": "MarketplaceTwo",
  "sourceName": "contracts/MatketplaceTwo.sol",
  "abi": [
    {
      "anonymous": false,
      "inputs": [
        {
          "indexed": true,
          "internalType": "address",
          "name": "listerWallet",
          "type": "address"
        },
        {
          "indexed": false,
          "internalType": "string",
          "name": "webId",
          "type": "string"
        },
        {
          "indexed": false,
          "internalType": "string",
          "name": "fileUrl",
          "type": "string"
        },
        {
          "indexed": false,
          "internalType": "string",
          "name": "fileHash",
          "type": "string"
        },
        {
          "indexed": false,
          "internalType": "uint256",
          "name": "price",
          "type": "uint256"
        }
      ],
      "name": "FileStored",
      "type": "event"
    },
    {
      "inputs": [
        {
          "internalType": "string",
          "name": "fileUrl",
          "type": "string"
        }
      ],
      "name": "getFileData",
      "outputs": [
        {
          "internalType": "address",
          "name": "",
          "type": "address"
        },
        {
          "internalType": "string",
          "name": "",
          "type": "string"
        },
        {
          "internalType": "string",
          "name": "",
          "type": "string"
        },
        {
          "internalType": "string",
          "name": "",
          "type": "string"
        },
        {
          "internalType": "uint256",
          "name": "",
          "type": "uint256"
        }
      ],
      "stateMutability": "view",
      "type": "function"
    },
    {
      "inputs": [
        {
          "internalType": "string",
          "name": "fileUrl",
          "type": "string"
        }
      ],
      "name": "getFilePrice",
      "outputs": [
        {
          "internalType": "uint256",
          "name": "",
          "type": "uint256"
        }
      ],
      "stateMutability": "view",
      "type": "function"
    },
    {
      "inputs": [
        {
          "internalType": "string",
          "name": "fileUrl",
          "type": "string"
        }
      ],
      "name": "purchaseFile",
      "outputs": [],
      "stateMutability": "payable",
      "type": "function"
    },
    {
      "inputs": [
        {
          "internalType": "string",
          "name": "fileUrl",
          "type": "string"
        },
        {
          "internalType": "string",
          "name": "fileHash",
          "type": "string"
        },
        {
          "internalType": "uint256",
          "name": "price",
          "type": "uint256"
        },
        {
          "internalType": "string",
          "name": "webId",
          "type": "string"
        }
      ],
      "name": "storeFileHashWithPrice",
      "outputs": [],
      "stateMutability": "payable",
      "type": "function"
    },
    {
      "inputs": [
        {
          "internalType": "string",
          "name": "fileUrl",
          "type": "string"
        },
        {
          "internalType": "string",
          "name": "hashToCheck",
          "type": "string"
        }
      ],
      "name": "verifyFileHash",
      "outputs": [
        {
          "internalType": "bool",
          "name": "",
          "type": "bool"
        }
      ],
      "stateMutability": "view",
      "type": "function"
    }
  ],
  "bytecode": "0x6080604052348015600f57600080fd5b5061101d8061001f6000396000f3fe60806040526004361061004a5760003560e01c80631158d3201461004f5780631f4e6e9e1461006b5780634ad14858146100a85780637609b8e4146100c457806378998bbf14610101575b600080fd5b610069600480360381019061006491906107b0565b610142565b005b34801561007757600080fd5b50610092600480360381019061008d91906107f9565b6101f0565b60405161009f919061088c565b60405180910390f35b6100c260048036038101906100bd91906108dd565b610269565b005b3480156100d057600080fd5b506100eb60048036038101906100e691906107b0565b6103b4565b6040516100f891906109a7565b60405180910390f35b34801561010d57600080fd5b50610128600480360381019061012391906107b0565b6103de565b604051610139959493929190610a82565b60405180910390f35b600080826040516101539190610b26565b9081526020016040518091039020600401549050600081116101aa576040517f08c379a00000000000000000000000000000000000000000000000000000000081526004016101a190610b89565b60405180910390fd5b8034146101ec576040517f08c379a00000000000000000000000000000000000000000000000000000000081526004016101e390610bf5565b60405180910390fd5b5050565b6000816040516020016102039190610b26565b604051602081830303815290604052805190602001206000846040516102299190610b26565b908152602001604051809103902060030160405160200161024a9190610d0d565b6040516020818303038152906040528051906020012014905092915050565b6040518060a001604052803373ffffffffffffffffffffffffffffffffffffffff168152602001828152602001858152602001848152602001838152506000856040516102b69190610b26565b908152602001604051809103902060008201518160000160006101000a81548173ffffffffffffffffffffffffffffffffffffffff021916908373ffffffffffffffffffffffffffffffffffffffff16021790555060208201518160010190816103209190610ebb565b5060408201518160020190816103369190610ebb565b50606082015181600301908161034c9190610ebb565b50608082015181600401559050503373ffffffffffffffffffffffffffffffffffffffff167fe9cb8c091be2204dad31f594752f20c6257f7a8cd498130193c5914a9a8932eb828686866040516103a69493929190610f8d565b60405180910390a250505050565b600080826040516103c59190610b26565b9081526020016040518091039020600401549050919050565b600060608060606000806000876040516103f89190610b26565b90815260200160405180910390206040518060a00160405290816000820160009054906101000a900473ffffffffffffffffffffffffffffffffffffffff1673ffffffffffffffffffffffffffffffffffffffff1673ffffffffffffffffffffffffffffffffffffffff16815260200160018201805461047790610c44565b80601f01602080910402602001604051908101604052809291908181526020018280546104a390610c44565b80156104f05780601f106104c5576101008083540402835291602001916104f0565b820191906000526020600020905b8154815290600101906020018083116104d357829003601f168201915b5050505050815260200160028201805461050990610c44565b80601f016020809104026020016040519081016040528092919081815260200182805461053590610c44565b80156105825780601f1061055757610100808354040283529160200191610582565b820191906000526020600020905b81548152906001019060200180831161056557829003601f168201915b5050505050815260200160038201805461059b90610c44565b80601f01602080910402602001604051908101604052809291908181526020018280546105c790610c44565b80156106145780601f106105e957610100808354040283529160200191610614565b820191906000526020600020905b8154815290600101906020018083116105f757829003601f168201915b50505050508152602001600482015481525050905080600001518160200151826040015183606001518460800151955095509550955095505091939590929450565b6000604051905090565b600080fd5b600080fd5b600080fd5b600080fd5b6000601f19601f8301169050919050565b7f4e487b7100000000000000000000000000000000000000000000000000000000600052604160045260246000fd5b6106bd82610674565b810181811067ffffffffffffffff821117156106dc576106db610685565b5b80604052505050565b60006106ef610656565b90506106fb82826106b4565b919050565b600067ffffffffffffffff82111561071b5761071a610685565b5b61072482610674565b9050602081019050919050565b82818337600083830152505050565b600061075361074e84610700565b6106e5565b90508281526020810184848401111561076f5761076e61066f565b5b61077a848285610731565b509392505050565b600082601f8301126107975761079661066a565b5b81356107a7848260208601610740565b91505092915050565b6000602082840312156107c6576107c5610660565b5b600082013567ffffffffffffffff8111156107e4576107e3610665565b5b6107f084828501610782565b91505092915050565b600080604083850312156108105761080f610660565b5b600083013567ffffffffffffffff81111561082e5761082d610665565b5b61083a85828601610782565b925050602083013567ffffffffffffffff81111561085b5761085a610665565b5b61086785828601610782565b9150509250929050565b60008115159050919050565b61088681610871565b82525050565b60006020820190506108a1600083018461087d565b92915050565b6000819050919050565b6108ba816108a7565b81146108c557600080fd5b50565b6000813590506108d7816108b1565b92915050565b600080600080608085870312156108f7576108f6610660565b5b600085013567ffffffffffffffff81111561091557610914610665565b5b61092187828801610782565b945050602085013567ffffffffffffffff81111561094257610941610665565b5b61094e87828801610782565b935050604061095f878288016108c8565b925050606085013567ffffffffffffffff8111156109805761097f610665565b5b61098c87828801610782565b91505092959194509250565b6109a1816108a7565b82525050565b60006020820190506109bc6000830184610998565b92915050565b600073ffffffffffffffffffffffffffffffffffffffff82169050919050565b60006109ed826109c2565b9050919050565b6109fd816109e2565b82525050565b600081519050919050565b600082825260208201905092915050565b60005b83811015610a3d578082015181840152602081019050610a22565b60008484015250505050565b6000610a5482610a03565b610a5e8185610a0e565b9350610a6e818560208601610a1f565b610a7781610674565b840191505092915050565b600060a082019050610a9760008301886109f4565b8181036020830152610aa98187610a49565b90508181036040830152610abd8186610a49565b90508181036060830152610ad18185610a49565b9050610ae06080830184610998565b9695505050505050565b600081905092915050565b6000610b0082610a03565b610b0a8185610aea565b9350610b1a818560208601610a1f565b80840191505092915050565b6000610b328284610af5565b915081905092915050565b7f46696c65206e6f7420666f756e642e0000000000000000000000000000000000600082015250565b6000610b73600f83610a0e565b9150610b7e82610b3d565b602082019050919050565b60006020820190508181036000830152610ba281610b66565b9050919050565b7f496e636f72726563742070726963652e00000000000000000000000000000000600082015250565b6000610bdf601083610a0e565b9150610bea82610ba9565b602082019050919050565b60006020820190508181036000830152610c0e81610bd2565b9050919050565b7f4e487b7100000000000000000000000000000000000000000000000000000000600052602260045260246000fd5b60006002820490506001821680610c5c57607f821691505b602082108103610c6f57610c6e610c15565b5b50919050565b60008190508160005260206000209050919050565b60008154610c9781610c44565b610ca18186610aea565b94506001821660008114610cbc5760018114610cd157610d04565b60ff1983168652811515820286019350610d04565b610cda85610c75565b60005b83811015610cfc57815481890152600182019150602081019050610cdd565b838801955050505b50505092915050565b6000610d198284610c8a565b915081905092915050565b60006020601f8301049050919050565b600082821b905092915050565b600060088302610d717fffffffffffffffffffffffffffffffffffffffffffffffffffffffffffffffff82610d34565b610d7b8683610d34565b95508019841693508086168417925050509392505050565b6000819050919050565b6000610db8610db3610dae846108a7565b610d93565b6108a7565b9050919050565b6000819050919050565b610dd283610d9d565b610de6610dde82610dbf565b848454610d41565b825550505050565b600090565b610dfb610dee565b610e06818484610dc9565b505050565b5b81811015610e2a57610e1f600082610df3565b600181019050610e0c565b5050565b601f821115610e6f57610e4081610c75565b610e4984610d24565b81016020851015610e58578190505b610e6c610e6485610d24565b830182610e0b565b50505b505050565b600082821c905092915050565b6000610e9260001984600802610e74565b1980831691505092915050565b6000610eab8383610e81565b9150826002028217905092915050565b610ec482610a03565b67ffffffffffffffff811115610edd57610edc610685565b5b610ee78254610c44565b610ef2828285610e2e565b600060209050601f831160018114610f255760008415610f13578287015190505b610f1d8582610e9f565b865550610f85565b601f198416610f3386610c75565b60005b82811015610f5b57848901518255600182019150602085019450602081019050610f36565b86831015610f785784890151610f74601f891682610e81565b8355505b6001600288020188555050505b505050505050565b60006080820190508181036000830152610fa78187610a49565b90508181036020830152610fbb8186610a49565b90508181036040830152610fcf8185610a49565b9050610fde6060830184610998565b9594505050505056fea26469706673582212204f148662aa4f2084be93711dea9e4692e6510be717e5e17265f3fcceb19635fd64736f6c634300081c0033",
  "linkReferences": {},
  "deployedLinkReferences": {}
}